{
	"Contracts/CipherX.sol": {
		"CipherX": {
			"abi": [
				{
					"anonymous": false,
					"inputs": [
						{
							"indexed": true,
							"internalType": "address",
							"name": "owner",
							"type": "address"
						},
						{
							"indexed": true,
							"internalType": "address",
							"name": "approved",
							"type": "address"
						},
						{
							"indexed": true,
							"internalType": "uint256",
							"name": "tokenId",
							"type": "uint256"
						}
					],
					"name": "Approval",
					"type": "event"
				},
				{
					"anonymous": false,
					"inputs": [
						{
							"indexed": true,
							"internalType": "address",
							"name": "owner",
							"type": "address"
						},
						{
							"indexed": true,
							"internalType": "address",
							"name": "operator",
							"type": "address"
						},
						{
							"indexed": false,
							"internalType": "bool",
							"name": "approved",
							"type": "bool"
						}
					],
					"name": "ApprovalForAll",
					"type": "event"
				},
				{
					"anonymous": false,
					"inputs": [
						{
							"indexed": true,
							"internalType": "address",
							"name": "from",
							"type": "address"
						},
						{
							"indexed": true,
							"internalType": "address",
							"name": "to",
							"type": "address"
						},
						{
							"indexed": true,
							"internalType": "uint256",
							"name": "tokenId",
							"type": "uint256"
						}
					],
					"name": "Transfer",
					"type": "event"
				},
				{
					"inputs": [
						{
							"internalType": "address",
							"name": "to",
							"type": "address"
						},
						{
							"internalType": "uint256",
							"name": "tokenId",
							"type": "uint256"
						}
					],
					"name": "approve",
					"outputs": [],
					"stateMutability": "nonpayable",
					"type": "function"
				},
				{
					"inputs": [
						{
							"internalType": "address",
							"name": "owner",
							"type": "address"
						}
					],
					"name": "balanceOf",
					"outputs": [
						{
							"internalType": "uint256",
							"name": "",
							"type": "uint256"
						}
					],
					"stateMutability": "view",
					"type": "function"
				},
				{
					"inputs": [
						{
							"internalType": "uint256",
							"name": "tokenId",
							"type": "uint256"
						}
					],
					"name": "getApproved",
					"outputs": [
						{
							"internalType": "address",
							"name": "",
							"type": "address"
						}
					],
					"stateMutability": "view",
					"type": "function"
				},
				{
					"inputs": [
						{
							"internalType": "address",
							"name": "owner",
							"type": "address"
						},
						{
							"internalType": "address",
							"name": "operator",
							"type": "address"
						}
					],
					"name": "isApprovedForAll",
					"outputs": [
						{
							"internalType": "bool",
							"name": "",
							"type": "bool"
						}
					],
					"stateMutability": "view",
					"type": "function"
				},
				{
					"inputs": [
						{
							"internalType": "address",
							"name": "to",
							"type": "address"
						},
						{
							"internalType": "uint256",
							"name": "tokenId",
							"type": "uint256"
						}
					],
					"name": "mint",
					"outputs": [],
					"stateMutability": "nonpayable",
					"type": "function"
				},
				{
					"inputs": [
						{
							"internalType": "uint256",
							"name": "tokenId",
							"type": "uint256"
						}
					],
					"name": "ownerOf",
					"outputs": [
						{
							"internalType": "address",
							"name": "",
							"type": "address"
						}
					],
					"stateMutability": "view",
					"type": "function"
				},
				{
					"inputs": [
						{
							"internalType": "address",
							"name": "from",
							"type": "address"
						},
						{
							"internalType": "address",
							"name": "to",
							"type": "address"
						},
						{
							"internalType": "uint256",
							"name": "tokenId",
							"type": "uint256"
						}
					],
					"name": "safeTransferFrom",
					"outputs": [],
					"stateMutability": "nonpayable",
					"type": "function"
				},
				{
					"inputs": [
						{
							"internalType": "address",
							"name": "operator",
							"type": "address"
						},
						{
							"internalType": "bool",
							"name": "approved",
							"type": "bool"
						}
					],
					"name": "setApprovalForAll",
					"outputs": [],
					"stateMutability": "nonpayable",
					"type": "function"
				},
				{
					"inputs": [
						{
							"internalType": "address",
							"name": "from",
							"type": "address"
						},
						{
							"internalType": "address",
							"name": "to",
							"type": "address"
						},
						{
							"internalType": "uint256",
							"name": "tokenId",
							"type": "uint256"
						}
					],
					"name": "transferFrom",
					"outputs": [],
					"stateMutability": "nonpayable",
					"type": "function"
				}
			],
			"devdoc": {
				"kind": "dev",
				"methods": {},
				"version": 1
			},
			"evm": {
				"assembly": "    /* \"Contracts/CipherX.sol\":140:4485  contract CipherX is IERC721 {... */\n  mstore(0x40, 0x80)\n  callvalue\n  dup1\n  iszero\n  tag_1\n  jumpi\n  revert(0x00, 0x00)\ntag_1:\n  pop\n  dataSize(sub_0)\n  dup1\n  dataOffset(sub_0)\n  0x00\n  codecopy\n  0x00\n  return\nstop\n\nsub_0: assembly {\n        /* \"Contracts/CipherX.sol\":140:4485  contract CipherX is IERC721 {... */\n      mstore(0x40, 0x80)\n      callvalue\n      dup1\n      iszero\n      tag_1\n      jumpi\n      revert(0x00, 0x00)\n    tag_1:\n      pop\n      jumpi(tag_2, lt(calldatasize, 0x04))\n      shr(0xe0, calldataload(0x00))\n      dup1\n      0x42842e0e\n      gt\n      tag_12\n      jumpi\n      dup1\n      0x42842e0e\n      eq\n      tag_7\n      jumpi\n      dup1\n      0x6352211e\n      eq\n      tag_8\n      jumpi\n      dup1\n      0x70a08231\n      eq\n      tag_9\n      jumpi\n      dup1\n      0xa22cb465\n      eq\n      tag_10\n      jumpi\n      dup1\n      0xe985e9c5\n      eq\n      tag_11\n      jumpi\n      jump(tag_2)\n    tag_12:\n      dup1\n      0x081812fc\n      eq\n      tag_3\n      jumpi\n      dup1\n      0x095ea7b3\n      eq\n      tag_4\n      jumpi\n      dup1\n      0x23b872dd\n      eq\n      tag_5\n      jumpi\n      dup1\n      0x40c10f19\n      eq\n      tag_6\n      jumpi\n    tag_2:\n      revert(0x00, 0x00)\n        /* \"Contracts/CipherX.sol\":878:1079  function getApproved(uint256 tokenId) public view override returns (address) {... */\n    tag_3:\n      tag_13\n      0x04\n      dup1\n      calldatasize\n      sub\n      dup2\n      add\n      swap1\n      tag_14\n      swap2\n      swap1\n      tag_15\n      jump\t// in\n    tag_14:\n      tag_16\n      jump\t// in\n    tag_13:\n      mload(0x40)\n      tag_17\n      swap2\n      swap1\n      tag_18\n      jump\t// in\n    tag_17:\n      mload(0x40)\n      dup1\n      swap2\n      sub\n      swap1\n      return\n        /* \"Contracts/CipherX.sol\":1288:1649  function approve(address to, uint256 tokenId) public override {... */\n    tag_4:\n      tag_19\n      0x04\n      dup1\n      calldatasize\n      sub\n      dup2\n      add\n      swap1\n      tag_20\n      swap2\n      swap1\n      tag_21\n      jump\t// in\n    tag_20:\n      tag_22\n      jump\t// in\n    tag_19:\n      stop\n        /* \"Contracts/CipherX.sol\":2486:3151  function transferFrom(address from, address to, uint256 tokenId) public override {... */\n    tag_5:\n      tag_23\n      0x04\n      dup1\n      calldatasize\n      sub\n      dup2\n      add\n      swap1\n      tag_24\n      swap2\n      swap1\n      tag_25\n      jump\t// in\n    tag_24:\n      tag_26\n      jump\t// in\n    tag_23:\n      stop\n        /* \"Contracts/CipherX.sol\":3501:3807  function mint(address to, uint256 tokenId) public {... */\n    tag_6:\n      tag_27\n      0x04\n      dup1\n      calldatasize\n      sub\n      dup2\n      add\n      swap1\n      tag_28\n      swap2\n      swap1\n      tag_21\n      jump\t// in\n    tag_28:\n      tag_29\n      jump\t// in\n    tag_27:\n      stop\n        /* \"Contracts/CipherX.sol\":3159:3434  function safeTransferFrom(address from, address to, uint256 tokenId) public override {... */\n    tag_7:\n      tag_30\n      0x04\n      dup1\n      calldatasize\n      sub\n      dup2\n      add\n      swap1\n      tag_31\n      swap2\n      swap1\n      tag_25\n      jump\t// in\n    tag_31:\n      tag_32\n      jump\t// in\n    tag_30:\n      stop\n        /* \"Contracts/CipherX.sol\":660:870  function ownerOf(uint256 tokenId) public view override returns (address) {... */\n    tag_8:\n      tag_33\n      0x04\n      dup1\n      calldatasize\n      sub\n      dup2\n      add\n      swap1\n      tag_34\n      swap2\n      swap1\n      tag_15\n      jump\t// in\n    tag_34:\n      tag_35\n      jump\t// in\n    tag_33:\n      mload(0x40)\n      tag_36\n      swap2\n      swap1\n      tag_18\n      jump\t// in\n    tag_36:\n      mload(0x40)\n      dup1\n      swap2\n      sub\n      swap1\n      return\n        /* \"Contracts/CipherX.sol\":479:652  function balanceOf(address owner) public view override returns (uint256) {... */\n    tag_9:\n      tag_37\n      0x04\n      dup1\n      calldatasize\n      sub\n      dup2\n      add\n      swap1\n      tag_38\n      swap2\n      swap1\n      tag_39\n      jump\t// in\n    tag_38:\n      tag_40\n      jump\t// in\n    tag_37:\n      mload(0x40)\n      tag_41\n      swap2\n      swap1\n      tag_42\n      jump\t// in\n    tag_41:\n      mload(0x40)\n      dup1\n      swap2\n      sub\n      swap1\n      return\n        /* \"Contracts/CipherX.sol\":1657:1865  function setApprovalForAll(address operator, bool approved) public override {... */\n    tag_10:\n      tag_43\n      0x04\n      dup1\n      calldatasize\n      sub\n      dup2\n      add\n      swap1\n      tag_44\n      swap2\n      swap1\n      tag_45\n      jump\t// in\n    tag_44:\n      tag_46\n      jump\t// in\n    tag_43:\n      stop\n        /* \"Contracts/CipherX.sol\":1087:1243  function isApprovedForAll(address owner, address operator) public view override returns (bool) {... */\n    tag_11:\n      tag_47\n      0x04\n      dup1\n      calldatasize\n      sub\n      dup2\n      add\n      swap1\n      tag_48\n      swap2\n      swap1\n      tag_49\n      jump\t// in\n    tag_48:\n      tag_50\n      jump\t// in\n    tag_47:\n      mload(0x40)\n      tag_51\n      swap2\n      swap1\n      tag_52\n      jump\t// in\n    tag_51:\n      mload(0x40)\n      dup1\n      swap2\n      sub\n      swap1\n      return\n        /* \"Contracts/CipherX.sol\":878:1079  function getApproved(uint256 tokenId) public view override returns (address) {... */\n    tag_16:\n        /* \"Contracts/CipherX.sol\":946:953  address */\n      0x00\n        /* \"Contracts/CipherX.sol\":1002:1003  0 */\n      0x00\n        /* \"Contracts/CipherX.sol\":974:1004  _owners[tokenId] != address(0) */\n      0xffffffffffffffffffffffffffffffffffffffff\n      and\n        /* \"Contracts/CipherX.sol\":974:981  _owners */\n      0x00\n        /* \"Contracts/CipherX.sol\":974:990  _owners[tokenId] */\n      0x00\n        /* \"Contracts/CipherX.sol\":982:989  tokenId */\n      dup5\n        /* \"Contracts/CipherX.sol\":974:990  _owners[tokenId] */\n      dup2\n      mstore\n      0x20\n      add\n      swap1\n      dup2\n      mstore\n      0x20\n      add\n      0x00\n      keccak256\n      0x00\n      swap1\n      sload\n      swap1\n      0x0100\n      exp\n      swap1\n      div\n      0xffffffffffffffffffffffffffffffffffffffff\n      and\n        /* \"Contracts/CipherX.sol\":974:1004  _owners[tokenId] != address(0) */\n      0xffffffffffffffffffffffffffffffffffffffff\n      and\n      sub\n        /* \"Contracts/CipherX.sol\":966:1029  require(_owners[tokenId] != address(0), \"Token does not exist\") */\n      tag_54\n      jumpi\n      mload(0x40)\n      0x08c379a000000000000000000000000000000000000000000000000000000000\n      dup2\n      mstore\n      0x04\n      add\n      tag_55\n      swap1\n      tag_56\n      jump\t// in\n    tag_55:\n      mload(0x40)\n      dup1\n      swap2\n      sub\n      swap1\n      revert\n    tag_54:\n        /* \"Contracts/CipherX.sol\":1047:1062  _tokenApprovals */\n      0x02\n        /* \"Contracts/CipherX.sol\":1047:1071  _tokenApprovals[tokenId] */\n      0x00\n        /* \"Contracts/CipherX.sol\":1063:1070  tokenId */\n      dup4\n        /* \"Contracts/CipherX.sol\":1047:1071  _tokenApprovals[tokenId] */\n      dup2\n      mstore\n      0x20\n      add\n      swap1\n      dup2\n      mstore\n      0x20\n      add\n      0x00\n      keccak256\n      0x00\n      swap1\n      sload\n      swap1\n      0x0100\n      exp\n      swap1\n      div\n      0xffffffffffffffffffffffffffffffffffffffff\n      and\n        /* \"Contracts/CipherX.sol\":1040:1071  return _tokenApprovals[tokenId] */\n      swap1\n      pop\n        /* \"Contracts/CipherX.sol\":878:1079  function getApproved(uint256 tokenId) public view override returns (address) {... */\n      swap2\n      swap1\n      pop\n      jump\t// out\n        /* \"Contracts/CipherX.sol\":1288:1649  function approve(address to, uint256 tokenId) public override {... */\n    tag_22:\n        /* \"Contracts/CipherX.sol\":1361:1374  address owner */\n      0x00\n        /* \"Contracts/CipherX.sol\":1377:1393  ownerOf(tokenId) */\n      tag_58\n        /* \"Contracts/CipherX.sol\":1385:1392  tokenId */\n      dup3\n        /* \"Contracts/CipherX.sol\":1377:1384  ownerOf */\n      tag_35\n        /* \"Contracts/CipherX.sol\":1377:1393  ownerOf(tokenId) */\n      jump\t// in\n    tag_58:\n        /* \"Contracts/CipherX.sol\":1361:1393  address owner = ownerOf(tokenId) */\n      swap1\n      pop\n        /* \"Contracts/CipherX.sol\":1484:1489  owner */\n      dup1\n        /* \"Contracts/CipherX.sol\":1470:1489  msg.sender == owner */\n      0xffffffffffffffffffffffffffffffffffffffff\n      and\n        /* \"Contracts/CipherX.sol\":1470:1480  msg.sender */\n      caller\n        /* \"Contracts/CipherX.sol\":1470:1489  msg.sender == owner */\n      0xffffffffffffffffffffffffffffffffffffffff\n      and\n      eq\n        /* \"Contracts/CipherX.sol\":1470:1528  msg.sender == owner || isApprovedForAll(owner, msg.sender) */\n      dup1\n      tag_59\n      jumpi\n      pop\n        /* \"Contracts/CipherX.sol\":1493:1528  isApprovedForAll(owner, msg.sender) */\n      tag_60\n        /* \"Contracts/CipherX.sol\":1510:1515  owner */\n      dup2\n        /* \"Contracts/CipherX.sol\":1517:1527  msg.sender */\n      caller\n        /* \"Contracts/CipherX.sol\":1493:1509  isApprovedForAll */\n      tag_50\n        /* \"Contracts/CipherX.sol\":1493:1528  isApprovedForAll(owner, msg.sender) */\n      jump\t// in\n    tag_60:\n        /* \"Contracts/CipherX.sol\":1470:1528  msg.sender == owner || isApprovedForAll(owner, msg.sender) */\n    tag_59:\n        /* \"Contracts/CipherX.sol\":1462:1547  require(msg.sender == owner || isApprovedForAll(owner, msg.sender), \"Not authorized\") */\n      tag_61\n      jumpi\n      mload(0x40)\n      0x08c379a000000000000000000000000000000000000000000000000000000000\n      dup2\n      mstore\n      0x04\n      add\n      tag_62\n      swap1\n      tag_63\n      jump\t// in\n    tag_62:\n      mload(0x40)\n      dup1\n      swap2\n      sub\n      swap1\n      revert\n    tag_61:\n        /* \"Contracts/CipherX.sol\":1595:1597  to */\n      dup3\n        /* \"Contracts/CipherX.sol\":1568:1583  _tokenApprovals */\n      0x02\n        /* \"Contracts/CipherX.sol\":1568:1592  _tokenApprovals[tokenId] */\n      0x00\n        /* \"Contracts/CipherX.sol\":1584:1591  tokenId */\n      dup5\n        /* \"Contracts/CipherX.sol\":1568:1592  _tokenApprovals[tokenId] */\n      dup2\n      mstore\n      0x20\n      add\n      swap1\n      dup2\n      mstore\n      0x20\n      add\n      0x00\n      keccak256\n      0x00\n        /* \"Contracts/CipherX.sol\":1568:1597  _tokenApprovals[tokenId] = to */\n      0x0100\n      exp\n      dup2\n      sload\n      dup2\n      0xffffffffffffffffffffffffffffffffffffffff\n      mul\n      not\n      and\n      swap1\n      dup4\n      0xffffffffffffffffffffffffffffffffffffffff\n      and\n      mul\n      or\n      swap1\n      sstore\n      pop\n        /* \"Contracts/CipherX.sol\":1633:1640  tokenId */\n      dup2\n        /* \"Contracts/CipherX.sol\":1629:1631  to */\n      dup4\n        /* \"Contracts/CipherX.sol\":1613:1641  Approval(owner, to, tokenId) */\n      0xffffffffffffffffffffffffffffffffffffffff\n      and\n        /* \"Contracts/CipherX.sol\":1622:1627  owner */\n      dup3\n        /* \"Contracts/CipherX.sol\":1613:1641  Approval(owner, to, tokenId) */\n      0xffffffffffffffffffffffffffffffffffffffff\n      and\n      0x8c5be1e5ebec7d5bd14f71427d1e84f3dd0314c0f7b2291e5b200ac8c7c3b925\n      mload(0x40)\n      mload(0x40)\n      dup1\n      swap2\n      sub\n      swap1\n      log4\n        /* \"Contracts/CipherX.sol\":1350:1649  {... */\n      pop\n        /* \"Contracts/CipherX.sol\":1288:1649  function approve(address to, uint256 tokenId) public override {... */\n      pop\n      pop\n      jump\t// out\n        /* \"Contracts/CipherX.sol\":2486:3151  function transferFrom(address from, address to, uint256 tokenId) public override {... */\n    tag_26:\n        /* \"Contracts/CipherX.sol\":2578:2591  address owner */\n      0x00\n        /* \"Contracts/CipherX.sol\":2594:2610  ownerOf(tokenId) */\n      tag_65\n        /* \"Contracts/CipherX.sol\":2602:2609  tokenId */\n      dup3\n        /* \"Contracts/CipherX.sol\":2594:2601  ownerOf */\n      tag_35\n        /* \"Contracts/CipherX.sol\":2594:2610  ownerOf(tokenId) */\n      jump\t// in\n    tag_65:\n        /* \"Contracts/CipherX.sol\":2578:2610  address owner = ownerOf(tokenId) */\n      swap1\n      pop\n        /* \"Contracts/CipherX.sol\":2844:2858  bool isSpender */\n      0x00\n        /* \"Contracts/CipherX.sol\":2876:2881  owner */\n      dup2\n        /* \"Contracts/CipherX.sol\":2862:2881  msg.sender == owner */\n      0xffffffffffffffffffffffffffffffffffffffff\n      and\n        /* \"Contracts/CipherX.sol\":2862:2872  msg.sender */\n      caller\n        /* \"Contracts/CipherX.sol\":2862:2881  msg.sender == owner */\n      0xffffffffffffffffffffffffffffffffffffffff\n      and\n      eq\n        /* \"Contracts/CipherX.sol\":2862:2947  msg.sender == owner || ... */\n      dup1\n      tag_66\n      jumpi\n      pop\n        /* \"Contracts/CipherX.sol\":2937:2947  msg.sender */\n      caller\n        /* \"Contracts/CipherX.sol\":2913:2947  getApproved(tokenId) == msg.sender */\n      0xffffffffffffffffffffffffffffffffffffffff\n      and\n        /* \"Contracts/CipherX.sol\":2913:2933  getApproved(tokenId) */\n      tag_67\n        /* \"Contracts/CipherX.sol\":2925:2932  tokenId */\n      dup5\n        /* \"Contracts/CipherX.sol\":2913:2924  getApproved */\n      tag_16\n        /* \"Contracts/CipherX.sol\":2913:2933  getApproved(tokenId) */\n      jump\t// in\n    tag_67:\n        /* \"Contracts/CipherX.sol\":2913:2947  getApproved(tokenId) == msg.sender */\n      0xffffffffffffffffffffffffffffffffffffffff\n      and\n      eq\n        /* \"Contracts/CipherX.sol\":2862:2947  msg.sender == owner || ... */\n    tag_66:\n        /* \"Contracts/CipherX.sol\":2862:3014  msg.sender == owner || ... */\n      dup1\n      tag_68\n      jumpi\n      pop\n        /* \"Contracts/CipherX.sol\":2979:3014  isApprovedForAll(owner, msg.sender) */\n      tag_69\n        /* \"Contracts/CipherX.sol\":2996:3001  owner */\n      dup3\n        /* \"Contracts/CipherX.sol\":3003:3013  msg.sender */\n      caller\n        /* \"Contracts/CipherX.sol\":2979:2995  isApprovedForAll */\n      tag_50\n        /* \"Contracts/CipherX.sol\":2979:3014  isApprovedForAll(owner, msg.sender) */\n      jump\t// in\n    tag_69:\n        /* \"Contracts/CipherX.sol\":2862:3014  msg.sender == owner || ... */\n    tag_68:\n        /* \"Contracts/CipherX.sol\":2844:3015  bool isSpender = (msg.sender == owner || ... */\n      swap1\n      pop\n        /* \"Contracts/CipherX.sol\":3062:3071  isSpender */\n      dup1\n        /* \"Contracts/CipherX.sol\":3054:3102  require(isSpender, \"Not authorized to transfer\") */\n      tag_70\n      jumpi\n      mload(0x40)\n      0x08c379a000000000000000000000000000000000000000000000000000000000\n      dup2\n      mstore\n      0x04\n      add\n      tag_71\n      swap1\n      tag_72\n      jump\t// in\n    tag_71:\n      mload(0x40)\n      dup1\n      swap2\n      sub\n      swap1\n      revert\n    tag_70:\n        /* \"Contracts/CipherX.sol\":3115:3143  _transfer(from, to, tokenId) */\n      tag_73\n        /* \"Contracts/CipherX.sol\":3125:3129  from */\n      dup6\n        /* \"Contracts/CipherX.sol\":3131:3133  to */\n      dup6\n        /* \"Contracts/CipherX.sol\":3135:3142  tokenId */\n      dup6\n        /* \"Contracts/CipherX.sol\":3115:3124  _transfer */\n      tag_74\n        /* \"Contracts/CipherX.sol\":3115:3143  _transfer(from, to, tokenId) */\n      jump\t// in\n    tag_73:\n        /* \"Contracts/CipherX.sol\":2567:3151  {... */\n      pop\n      pop\n        /* \"Contracts/CipherX.sol\":2486:3151  function transferFrom(address from, address to, uint256 tokenId) public override {... */\n      pop\n      pop\n      pop\n      jump\t// out\n        /* \"Contracts/CipherX.sol\":3501:3807  function mint(address to, uint256 tokenId) public {... */\n    tag_29:\n        /* \"Contracts/CipherX.sol\":3584:3585  0 */\n      0x00\n        /* \"Contracts/CipherX.sol\":3570:3586  to != address(0) */\n      0xffffffffffffffffffffffffffffffffffffffff\n      and\n        /* \"Contracts/CipherX.sol\":3570:3572  to */\n      dup3\n        /* \"Contracts/CipherX.sol\":3570:3586  to != address(0) */\n      0xffffffffffffffffffffffffffffffffffffffff\n      and\n      sub\n        /* \"Contracts/CipherX.sol\":3562:3611  require(to != address(0), \"Mint to zero address\") */\n      tag_76\n      jumpi\n      mload(0x40)\n      0x08c379a000000000000000000000000000000000000000000000000000000000\n      dup2\n      mstore\n      0x04\n      add\n      tag_77\n      swap1\n      tag_78\n      jump\t// in\n    tag_77:\n      mload(0x40)\n      dup1\n      swap2\n      sub\n      swap1\n      revert\n    tag_76:\n        /* \"Contracts/CipherX.sol\":3658:3659  0 */\n      0x00\n        /* \"Contracts/CipherX.sol\":3630:3660  _owners[tokenId] == address(0) */\n      0xffffffffffffffffffffffffffffffffffffffff\n      and\n        /* \"Contracts/CipherX.sol\":3630:3637  _owners */\n      0x00\n        /* \"Contracts/CipherX.sol\":3630:3646  _owners[tokenId] */\n      0x00\n        /* \"Contracts/CipherX.sol\":3638:3645  tokenId */\n      dup4\n        /* \"Contracts/CipherX.sol\":3630:3646  _owners[tokenId] */\n      dup2\n      mstore\n      0x20\n      add\n      swap1\n      dup2\n      mstore\n      0x20\n      add\n      0x00\n      keccak256\n      0x00\n      swap1\n      sload\n      swap1\n      0x0100\n      exp\n      swap1\n      div\n      0xffffffffffffffffffffffffffffffffffffffff\n      and\n        /* \"Contracts/CipherX.sol\":3630:3660  _owners[tokenId] == address(0) */\n      0xffffffffffffffffffffffffffffffffffffffff\n      and\n      eq\n        /* \"Contracts/CipherX.sol\":3622:3685  require(_owners[tokenId] == address(0), \"Token already minted\") */\n      tag_79\n      jumpi\n      mload(0x40)\n      0x08c379a000000000000000000000000000000000000000000000000000000000\n      dup2\n      mstore\n      0x04\n      add\n      tag_80\n      swap1\n      tag_81\n      jump\t// in\n    tag_80:\n      mload(0x40)\n      dup1\n      swap2\n      sub\n      swap1\n      revert\n    tag_79:\n        /* \"Contracts/CipherX.sol\":3715:3716  1 */\n      0x01\n        /* \"Contracts/CipherX.sol\":3698:3707  _balances */\n      dup1\n        /* \"Contracts/CipherX.sol\":3698:3711  _balances[to] */\n      0x00\n        /* \"Contracts/CipherX.sol\":3708:3710  to */\n      dup5\n        /* \"Contracts/CipherX.sol\":3698:3711  _balances[to] */\n      0xffffffffffffffffffffffffffffffffffffffff\n      and\n      0xffffffffffffffffffffffffffffffffffffffff\n      and\n      dup2\n      mstore\n      0x20\n      add\n      swap1\n      dup2\n      mstore\n      0x20\n      add\n      0x00\n      keccak256\n      0x00\n        /* \"Contracts/CipherX.sol\":3698:3716  _balances[to] += 1 */\n      dup3\n      dup3\n      sload\n      tag_82\n      swap2\n      swap1\n      tag_83\n      jump\t// in\n    tag_82:\n      swap3\n      pop\n      pop\n      dup2\n      swap1\n      sstore\n      pop\n        /* \"Contracts/CipherX.sol\":3746:3748  to */\n      dup2\n        /* \"Contracts/CipherX.sol\":3727:3734  _owners */\n      0x00\n        /* \"Contracts/CipherX.sol\":3727:3743  _owners[tokenId] */\n      0x00\n        /* \"Contracts/CipherX.sol\":3735:3742  tokenId */\n      dup4\n        /* \"Contracts/CipherX.sol\":3727:3743  _owners[tokenId] */\n      dup2\n      mstore\n      0x20\n      add\n      swap1\n      dup2\n      mstore\n      0x20\n      add\n      0x00\n      keccak256\n      0x00\n        /* \"Contracts/CipherX.sol\":3727:3748  _owners[tokenId] = to */\n      0x0100\n      exp\n      dup2\n      sload\n      dup2\n      0xffffffffffffffffffffffffffffffffffffffff\n      mul\n      not\n      and\n      swap1\n      dup4\n      0xffffffffffffffffffffffffffffffffffffffff\n      and\n      mul\n      or\n      swap1\n      sstore\n      pop\n        /* \"Contracts/CipherX.sol\":3791:3798  tokenId */\n      dup1\n        /* \"Contracts/CipherX.sol\":3787:3789  to */\n      dup3\n        /* \"Contracts/CipherX.sol\":3766:3799  Transfer(address(0), to, tokenId) */\n      0xffffffffffffffffffffffffffffffffffffffff\n      and\n        /* \"Contracts/CipherX.sol\":3783:3784  0 */\n      0x00\n        /* \"Contracts/CipherX.sol\":3766:3799  Transfer(address(0), to, tokenId) */\n      0xffffffffffffffffffffffffffffffffffffffff\n      and\n      0xddf252ad1be2c89b69c2b068fc378daa952ba7f163c4a11628f55a4df523b3ef\n      mload(0x40)\n      mload(0x40)\n      dup1\n      swap2\n      sub\n      swap1\n      log4\n        /* \"Contracts/CipherX.sol\":3501:3807  function mint(address to, uint256 tokenId) public {... */\n      pop\n      pop\n      jump\t// out\n        /* \"Contracts/CipherX.sol\":3159:3434  function safeTransferFrom(address from, address to, uint256 tokenId) public override {... */\n    tag_32:\n        /* \"Contracts/CipherX.sol\":3255:3286  transferFrom(from, to, tokenId) */\n      tag_85\n        /* \"Contracts/CipherX.sol\":3268:3272  from */\n      dup4\n        /* \"Contracts/CipherX.sol\":3274:3276  to */\n      dup4\n        /* \"Contracts/CipherX.sol\":3278:3285  tokenId */\n      dup4\n        /* \"Contracts/CipherX.sol\":3255:3267  transferFrom */\n      tag_26\n        /* \"Contracts/CipherX.sol\":3255:3286  transferFrom(from, to, tokenId) */\n      jump\t// in\n    tag_85:\n        /* \"Contracts/CipherX.sol\":3334:3379  _checkOnERC721Received(from, to, tokenId, \"\") */\n      tag_86\n        /* \"Contracts/CipherX.sol\":3357:3361  from */\n      dup4\n        /* \"Contracts/CipherX.sol\":3363:3365  to */\n      dup4\n        /* \"Contracts/CipherX.sol\":3367:3374  tokenId */\n      dup4\n        /* \"Contracts/CipherX.sol\":3334:3379  _checkOnERC721Received(from, to, tokenId, \"\") */\n      mload(0x40)\n      dup1\n      0x20\n      add\n      0x40\n      mstore\n      dup1\n      0x00\n      dup2\n      mstore\n      pop\n        /* \"Contracts/CipherX.sol\":3334:3356  _checkOnERC721Received */\n      tag_87\n        /* \"Contracts/CipherX.sol\":3334:3379  _checkOnERC721Received(from, to, tokenId, \"\") */\n      jump\t// in\n    tag_86:\n        /* \"Contracts/CipherX.sol\":3326:3426  require(_checkOnERC721Received(from, to, tokenId, \"\"), \"Transfer to non ERC721Receiver implementer\") */\n      tag_88\n      jumpi\n      mload(0x40)\n      0x08c379a000000000000000000000000000000000000000000000000000000000\n      dup2\n      mstore\n      0x04\n      add\n      tag_89\n      swap1\n      tag_90\n      jump\t// in\n    tag_89:\n      mload(0x40)\n      dup1\n      swap2\n      sub\n      swap1\n      revert\n    tag_88:\n        /* \"Contracts/CipherX.sol\":3159:3434  function safeTransferFrom(address from, address to, uint256 tokenId) public override {... */\n      pop\n      pop\n      pop\n      jump\t// out\n        /* \"Contracts/CipherX.sol\":660:870  function ownerOf(uint256 tokenId) public view override returns (address) {... */\n    tag_35:\n        /* \"Contracts/CipherX.sol\":724:731  address */\n      0x00\n        /* \"Contracts/CipherX.sol\":744:757  address owner */\n      0x00\n        /* \"Contracts/CipherX.sol\":760:767  _owners */\n      0x00\n        /* \"Contracts/CipherX.sol\":760:776  _owners[tokenId] */\n      0x00\n        /* \"Contracts/CipherX.sol\":768:775  tokenId */\n      dup5\n        /* \"Contracts/CipherX.sol\":760:776  _owners[tokenId] */\n      dup2\n      mstore\n      0x20\n      add\n      swap1\n      dup2\n      mstore\n      0x20\n      add\n      0x00\n      keccak256\n      0x00\n      swap1\n      sload\n      swap1\n      0x0100\n      exp\n      swap1\n      div\n      0xffffffffffffffffffffffffffffffffffffffff\n      and\n        /* \"Contracts/CipherX.sol\":744:776  address owner = _owners[tokenId] */\n      swap1\n      pop\n        /* \"Contracts/CipherX.sol\":812:813  0 */\n      0x00\n        /* \"Contracts/CipherX.sol\":795:814  owner != address(0) */\n      0xffffffffffffffffffffffffffffffffffffffff\n      and\n        /* \"Contracts/CipherX.sol\":795:800  owner */\n      dup2\n        /* \"Contracts/CipherX.sol\":795:814  owner != address(0) */\n      0xffffffffffffffffffffffffffffffffffffffff\n      and\n      sub\n        /* \"Contracts/CipherX.sol\":787:839  require(owner != address(0), \"Token does not exist\") */\n      tag_92\n      jumpi\n      mload(0x40)\n      0x08c379a000000000000000000000000000000000000000000000000000000000\n      dup2\n      mstore\n      0x04\n      add\n      tag_93\n      swap1\n      tag_56\n      jump\t// in\n    tag_93:\n      mload(0x40)\n      dup1\n      swap2\n      sub\n      swap1\n      revert\n    tag_92:\n        /* \"Contracts/CipherX.sol\":857:862  owner */\n      dup1\n        /* \"Contracts/CipherX.sol\":850:862  return owner */\n      swap2\n      pop\n      pop\n        /* \"Contracts/CipherX.sol\":660:870  function ownerOf(uint256 tokenId) public view override returns (address) {... */\n      swap2\n      swap1\n      pop\n      jump\t// out\n        /* \"Contracts/CipherX.sol\":479:652  function balanceOf(address owner) public view override returns (uint256) {... */\n    tag_40:\n        /* \"Contracts/CipherX.sol\":543:550  uint256 */\n      0x00\n        /* \"Contracts/CipherX.sol\":588:589  0 */\n      0x00\n        /* \"Contracts/CipherX.sol\":571:590  owner != address(0) */\n      0xffffffffffffffffffffffffffffffffffffffff\n      and\n        /* \"Contracts/CipherX.sol\":571:576  owner */\n      dup3\n        /* \"Contracts/CipherX.sol\":571:590  owner != address(0) */\n      0xffffffffffffffffffffffffffffffffffffffff\n      and\n      sub\n        /* \"Contracts/CipherX.sol\":563:610  require(owner != address(0), \"Address is zero\") */\n      tag_95\n      jumpi\n      mload(0x40)\n      0x08c379a000000000000000000000000000000000000000000000000000000000\n      dup2\n      mstore\n      0x04\n      add\n      tag_96\n      swap1\n      tag_97\n      jump\t// in\n    tag_96:\n      mload(0x40)\n      dup1\n      swap2\n      sub\n      swap1\n      revert\n    tag_95:\n        /* \"Contracts/CipherX.sol\":628:637  _balances */\n      0x01\n        /* \"Contracts/CipherX.sol\":628:644  _balances[owner] */\n      0x00\n        /* \"Contracts/CipherX.sol\":638:643  owner */\n      dup4\n        /* \"Contracts/CipherX.sol\":628:644  _balances[owner] */\n      0xffffffffffffffffffffffffffffffffffffffff\n      and\n      0xffffffffffffffffffffffffffffffffffffffff\n      and\n      dup2\n      mstore\n      0x20\n      add\n      swap1\n      dup2\n      mstore\n      0x20\n      add\n      0x00\n      keccak256\n      sload\n        /* \"Contracts/CipherX.sol\":621:644  return _balances[owner] */\n      swap1\n      pop\n        /* \"Contracts/CipherX.sol\":479:652  function balanceOf(address owner) public view override returns (uint256) {... */\n      swap2\n      swap1\n      pop\n      jump\t// out\n        /* \"Contracts/CipherX.sol\":1657:1865  function setApprovalForAll(address operator, bool approved) public override {... */\n    tag_46:\n        /* \"Contracts/CipherX.sol\":1787:1795  approved */\n      dup1\n        /* \"Contracts/CipherX.sol\":1744:1762  _operatorApprovals */\n      0x03\n        /* \"Contracts/CipherX.sol\":1744:1774  _operatorApprovals[msg.sender] */\n      0x00\n        /* \"Contracts/CipherX.sol\":1763:1773  msg.sender */\n      caller\n        /* \"Contracts/CipherX.sol\":1744:1774  _operatorApprovals[msg.sender] */\n      0xffffffffffffffffffffffffffffffffffffffff\n      and\n      0xffffffffffffffffffffffffffffffffffffffff\n      and\n      dup2\n      mstore\n      0x20\n      add\n      swap1\n      dup2\n      mstore\n      0x20\n      add\n      0x00\n      keccak256\n        /* \"Contracts/CipherX.sol\":1744:1784  _operatorApprovals[msg.sender][operator] */\n      0x00\n        /* \"Contracts/CipherX.sol\":1775:1783  operator */\n      dup5\n        /* \"Contracts/CipherX.sol\":1744:1784  _operatorApprovals[msg.sender][operator] */\n      0xffffffffffffffffffffffffffffffffffffffff\n      and\n      0xffffffffffffffffffffffffffffffffffffffff\n      and\n      dup2\n      mstore\n      0x20\n      add\n      swap1\n      dup2\n      mstore\n      0x20\n      add\n      0x00\n      keccak256\n      0x00\n        /* \"Contracts/CipherX.sol\":1744:1795  _operatorApprovals[msg.sender][operator] = approved */\n      0x0100\n      exp\n      dup2\n      sload\n      dup2\n      0xff\n      mul\n      not\n      and\n      swap1\n      dup4\n      iszero\n      iszero\n      mul\n      or\n      swap1\n      sstore\n      pop\n        /* \"Contracts/CipherX.sol\":1838:1846  operator */\n      dup2\n        /* \"Contracts/CipherX.sol\":1811:1857  ApprovalForAll(msg.sender, operator, approved) */\n      0xffffffffffffffffffffffffffffffffffffffff\n      and\n        /* \"Contracts/CipherX.sol\":1826:1836  msg.sender */\n      caller\n        /* \"Contracts/CipherX.sol\":1811:1857  ApprovalForAll(msg.sender, operator, approved) */\n      0xffffffffffffffffffffffffffffffffffffffff\n      and\n      0x17307eab39ab6107e8899845ad3d59bd9653f200f220920489ca2b5937696c31\n        /* \"Contracts/CipherX.sol\":1848:1856  approved */\n      dup4\n        /* \"Contracts/CipherX.sol\":1811:1857  ApprovalForAll(msg.sender, operator, approved) */\n      mload(0x40)\n      tag_99\n      swap2\n      swap1\n      tag_52\n      jump\t// in\n    tag_99:\n      mload(0x40)\n      dup1\n      swap2\n      sub\n      swap1\n      log3\n        /* \"Contracts/CipherX.sol\":1657:1865  function setApprovalForAll(address operator, bool approved) public override {... */\n      pop\n      pop\n      jump\t// out\n        /* \"Contracts/CipherX.sol\":1087:1243  function isApprovedForAll(address owner, address operator) public view override returns (bool) {... */\n    tag_50:\n        /* \"Contracts/CipherX.sol\":1176:1180  bool */\n      0x00\n        /* \"Contracts/CipherX.sol\":1200:1218  _operatorApprovals */\n      0x03\n        /* \"Contracts/CipherX.sol\":1200:1225  _operatorApprovals[owner] */\n      0x00\n        /* \"Contracts/CipherX.sol\":1219:1224  owner */\n      dup5\n        /* \"Contracts/CipherX.sol\":1200:1225  _operatorApprovals[owner] */\n      0xffffffffffffffffffffffffffffffffffffffff\n      and\n      0xffffffffffffffffffffffffffffffffffffffff\n      and\n      dup2\n      mstore\n      0x20\n      add\n      swap1\n      dup2\n      mstore\n      0x20\n      add\n      0x00\n      keccak256\n        /* \"Contracts/CipherX.sol\":1200:1235  _operatorApprovals[owner][operator] */\n      0x00\n        /* \"Contracts/CipherX.sol\":1226:1234  operator */\n      dup4\n        /* \"Contracts/CipherX.sol\":1200:1235  _operatorApprovals[owner][operator] */\n      0xffffffffffffffffffffffffffffffffffffffff\n      and\n      0xffffffffffffffffffffffffffffffffffffffff\n      and\n      dup2\n      mstore\n      0x20\n      add\n      swap1\n      dup2\n      mstore\n      0x20\n      add\n      0x00\n      keccak256\n      0x00\n      swap1\n      sload\n      swap1\n      0x0100\n      exp\n      swap1\n      div\n      0xff\n      and\n        /* \"Contracts/CipherX.sol\":1193:1235  return _operatorApprovals[owner][operator] */\n      swap1\n      pop\n        /* \"Contracts/CipherX.sol\":1087:1243  function isApprovedForAll(address owner, address operator) public view override returns (bool) {... */\n      swap3\n      swap2\n      pop\n      pop\n      jump\t// out\n        /* \"Contracts/CipherX.sol\":1971:2478  function _transfer(address from, address to, uint256 tokenId) internal {... */\n    tag_74:\n        /* \"Contracts/CipherX.sol\":2081:2085  from */\n      dup3\n        /* \"Contracts/CipherX.sol\":2061:2085  ownerOf(tokenId) == from */\n      0xffffffffffffffffffffffffffffffffffffffff\n      and\n        /* \"Contracts/CipherX.sol\":2061:2077  ownerOf(tokenId) */\n      tag_102\n        /* \"Contracts/CipherX.sol\":2069:2076  tokenId */\n      dup3\n        /* \"Contracts/CipherX.sol\":2061:2068  ownerOf */\n      tag_35\n        /* \"Contracts/CipherX.sol\":2061:2077  ownerOf(tokenId) */\n      jump\t// in\n    tag_102:\n        /* \"Contracts/CipherX.sol\":2061:2085  ownerOf(tokenId) == from */\n      0xffffffffffffffffffffffffffffffffffffffff\n      and\n      eq\n        /* \"Contracts/CipherX.sol\":2053:2111  require(ownerOf(tokenId) == from, \"From is not the owner\") */\n      tag_103\n      jumpi\n      mload(0x40)\n      0x08c379a000000000000000000000000000000000000000000000000000000000\n      dup2\n      mstore\n      0x04\n      add\n      tag_104\n      swap1\n      tag_105\n      jump\t// in\n    tag_104:\n      mload(0x40)\n      dup1\n      swap2\n      sub\n      swap1\n      revert\n    tag_103:\n        /* \"Contracts/CipherX.sol\":2144:2145  0 */\n      0x00\n        /* \"Contracts/CipherX.sol\":2130:2146  to != address(0) */\n      0xffffffffffffffffffffffffffffffffffffffff\n      and\n        /* \"Contracts/CipherX.sol\":2130:2132  to */\n      dup3\n        /* \"Contracts/CipherX.sol\":2130:2146  to != address(0) */\n      0xffffffffffffffffffffffffffffffffffffffff\n      and\n      sub\n        /* \"Contracts/CipherX.sol\":2122:2175  require(to != address(0), \"Transfer to zero address\") */\n      tag_106\n      jumpi\n      mload(0x40)\n      0x08c379a000000000000000000000000000000000000000000000000000000000\n      dup2\n      mstore\n      0x04\n      add\n      tag_107\n      swap1\n      tag_108\n      jump\t// in\n    tag_107:\n      mload(0x40)\n      dup1\n      swap2\n      sub\n      swap1\n      revert\n    tag_106:\n        /* \"Contracts/CipherX.sol\":2246:2261  _tokenApprovals */\n      0x02\n        /* \"Contracts/CipherX.sol\":2246:2270  _tokenApprovals[tokenId] */\n      0x00\n        /* \"Contracts/CipherX.sol\":2262:2269  tokenId */\n      dup3\n        /* \"Contracts/CipherX.sol\":2246:2270  _tokenApprovals[tokenId] */\n      dup2\n      mstore\n      0x20\n      add\n      swap1\n      dup2\n      mstore\n      0x20\n      add\n      0x00\n      keccak256\n      0x00\n        /* \"Contracts/CipherX.sol\":2239:2270  delete _tokenApprovals[tokenId] */\n      0x0100\n      exp\n      dup2\n      sload\n      swap1\n      0xffffffffffffffffffffffffffffffffffffffff\n      mul\n      not\n      and\n      swap1\n      sstore\n        /* \"Contracts/CipherX.sol\":2333:2334  1 */\n      0x01\n        /* \"Contracts/CipherX.sol\":2314:2323  _balances */\n      dup1\n        /* \"Contracts/CipherX.sol\":2314:2329  _balances[from] */\n      0x00\n        /* \"Contracts/CipherX.sol\":2324:2328  from */\n      dup6\n        /* \"Contracts/CipherX.sol\":2314:2329  _balances[from] */\n      0xffffffffffffffffffffffffffffffffffffffff\n      and\n      0xffffffffffffffffffffffffffffffffffffffff\n      and\n      dup2\n      mstore\n      0x20\n      add\n      swap1\n      dup2\n      mstore\n      0x20\n      add\n      0x00\n      keccak256\n      0x00\n        /* \"Contracts/CipherX.sol\":2314:2334  _balances[from] -= 1 */\n      dup3\n      dup3\n      sload\n      tag_109\n      swap2\n      swap1\n      tag_110\n      jump\t// in\n    tag_109:\n      swap3\n      pop\n      pop\n      dup2\n      swap1\n      sstore\n      pop\n        /* \"Contracts/CipherX.sol\":2362:2363  1 */\n      0x01\n        /* \"Contracts/CipherX.sol\":2345:2354  _balances */\n      dup1\n        /* \"Contracts/CipherX.sol\":2345:2358  _balances[to] */\n      0x00\n        /* \"Contracts/CipherX.sol\":2355:2357  to */\n      dup5\n        /* \"Contracts/CipherX.sol\":2345:2358  _balances[to] */\n      0xffffffffffffffffffffffffffffffffffffffff\n      and\n      0xffffffffffffffffffffffffffffffffffffffff\n      and\n      dup2\n      mstore\n      0x20\n      add\n      swap1\n      dup2\n      mstore\n      0x20\n      add\n      0x00\n      keccak256\n      0x00\n        /* \"Contracts/CipherX.sol\":2345:2363  _balances[to] += 1 */\n      dup3\n      dup3\n      sload\n      tag_111\n      swap2\n      swap1\n      tag_83\n      jump\t// in\n    tag_111:\n      swap3\n      pop\n      pop\n      dup2\n      swap1\n      sstore\n      pop\n        /* \"Contracts/CipherX.sol\":2423:2425  to */\n      dup2\n        /* \"Contracts/CipherX.sol\":2404:2411  _owners */\n      0x00\n        /* \"Contracts/CipherX.sol\":2404:2420  _owners[tokenId] */\n      0x00\n        /* \"Contracts/CipherX.sol\":2412:2419  tokenId */\n      dup4\n        /* \"Contracts/CipherX.sol\":2404:2420  _owners[tokenId] */\n      dup2\n      mstore\n      0x20\n      add\n      swap1\n      dup2\n      mstore\n      0x20\n      add\n      0x00\n      keccak256\n      0x00\n        /* \"Contracts/CipherX.sol\":2404:2425  _owners[tokenId] = to */\n      0x0100\n      exp\n      dup2\n      sload\n      dup2\n      0xffffffffffffffffffffffffffffffffffffffff\n      mul\n      not\n      and\n      swap1\n      dup4\n      0xffffffffffffffffffffffffffffffffffffffff\n      and\n      mul\n      or\n      swap1\n      sstore\n      pop\n        /* \"Contracts/CipherX.sol\":2462:2469  tokenId */\n      dup1\n        /* \"Contracts/CipherX.sol\":2458:2460  to */\n      dup3\n        /* \"Contracts/CipherX.sol\":2443:2470  Transfer(from, to, tokenId) */\n      0xffffffffffffffffffffffffffffffffffffffff\n      and\n        /* \"Contracts/CipherX.sol\":2452:2456  from */\n      dup5\n        /* \"Contracts/CipherX.sol\":2443:2470  Transfer(from, to, tokenId) */\n      0xffffffffffffffffffffffffffffffffffffffff\n      and\n      0xddf252ad1be2c89b69c2b068fc378daa952ba7f163c4a11628f55a4df523b3ef\n      mload(0x40)\n      mload(0x40)\n      dup1\n      swap2\n      sub\n      swap1\n      log4\n        /* \"Contracts/CipherX.sol\":1971:2478  function _transfer(address from, address to, uint256 tokenId) internal {... */\n      pop\n      pop\n      pop\n      jump\t// out\n        /* \"Contracts/CipherX.sol\":3859:4482  function _checkOnERC721Received(address from, address to, uint256 tokenId, bytes memory _data) private returns (bool) {... */\n    tag_87:\n        /* \"Contracts/CipherX.sol\":3971:3975  bool */\n      0x00\n        /* \"Contracts/CipherX.sol\":3988:4000  uint256 size */\n      0x00\n        /* \"Contracts/CipherX.sol\":4042:4044  to */\n      dup5\n        /* \"Contracts/CipherX.sol\":4030:4045  extcodesize(to) */\n      extcodesize\n        /* \"Contracts/CipherX.sol\":4022:4045  size := extcodesize(to) */\n      swap1\n      pop\n        /* \"Contracts/CipherX.sol\":4112:4113  0 */\n      0x00\n        /* \"Contracts/CipherX.sol\":4105:4109  size */\n      dup2\n        /* \"Contracts/CipherX.sol\":4105:4113  size > 0 */\n      gt\n        /* \"Contracts/CipherX.sol\":4101:4475  if (size > 0) {... */\n      iszero\n      tag_113\n      jumpi\n        /* \"Contracts/CipherX.sol\":4150:4152  to */\n      dup5\n        /* \"Contracts/CipherX.sol\":4134:4170  IERC721Receiver(to).onERC721Received */\n      0xffffffffffffffffffffffffffffffffffffffff\n      and\n      0x150b7a02\n        /* \"Contracts/CipherX.sol\":4171:4181  msg.sender */\n      caller\n        /* \"Contracts/CipherX.sol\":4183:4187  from */\n      dup9\n        /* \"Contracts/CipherX.sol\":4189:4196  tokenId */\n      dup8\n        /* \"Contracts/CipherX.sol\":4198:4203  _data */\n      dup8\n        /* \"Contracts/CipherX.sol\":4134:4204  IERC721Receiver(to).onERC721Received(msg.sender, from, tokenId, _data) */\n      mload(0x40)\n      dup6\n      0xffffffff\n      and\n      0xe0\n      shl\n      dup2\n      mstore\n      0x04\n      add\n      tag_114\n      swap5\n      swap4\n      swap3\n      swap2\n      swap1\n      tag_115\n      jump\t// in\n    tag_114:\n      0x20\n      mload(0x40)\n      dup1\n      dup4\n      sub\n      dup2\n      0x00\n      dup8\n      gas\n      call\n      swap3\n      pop\n      pop\n      pop\n      dup1\n      iszero\n      tag_116\n      jumpi\n      pop\n      mload(0x40)\n      returndatasize\n      not(0x1f)\n      0x1f\n      dup3\n      add\n      and\n      dup3\n      add\n      dup1\n      0x40\n      mstore\n      pop\n      dup2\n      add\n      swap1\n      tag_117\n      swap2\n      swap1\n      tag_118\n      jump\t// in\n    tag_117:\n      0x01\n    tag_116:\n        /* \"Contracts/CipherX.sol\":4130:4376  try IERC721Receiver(to).onERC721Received(msg.sender, from, tokenId, _data) returns (bytes4 retval) {... */\n      tag_119\n      jumpi\n        /* \"Contracts/CipherX.sol\":4355:4360  false */\n      0x00\n        /* \"Contracts/CipherX.sol\":4348:4360  return false */\n      swap2\n      pop\n      pop\n      jump(tag_112)\n        /* \"Contracts/CipherX.sol\":4130:4376  try IERC721Receiver(to).onERC721Received(msg.sender, from, tokenId, _data) returns (bytes4 retval) {... */\n    tag_119:\n        /* \"Contracts/CipherX.sol\":4265:4306  IERC721Receiver.onERC721Received.selector */\n      shl(0xe0, 0x150b7a02)\n        /* \"Contracts/CipherX.sol\":4255:4306  retval == IERC721Receiver.onERC721Received.selector */\n      not(0xffffffffffffffffffffffffffffffffffffffffffffffffffffffff)\n      and\n        /* \"Contracts/CipherX.sol\":4255:4261  retval */\n      dup2\n        /* \"Contracts/CipherX.sol\":4255:4306  retval == IERC721Receiver.onERC721Received.selector */\n      not(0xffffffffffffffffffffffffffffffffffffffffffffffffffffffff)\n      and\n      eq\n        /* \"Contracts/CipherX.sol\":4248:4306  return retval == IERC721Receiver.onERC721Received.selector */\n      swap3\n      pop\n      pop\n      pop\n      jump(tag_112)\n        /* \"Contracts/CipherX.sol\":4101:4475  if (size > 0) {... */\n    tag_113:\n        /* \"Contracts/CipherX.sol\":4415:4419  true */\n      0x01\n        /* \"Contracts/CipherX.sol\":4408:4419  return true */\n      swap2\n      pop\n      pop\n        /* \"Contracts/CipherX.sol\":3859:4482  function _checkOnERC721Received(address from, address to, uint256 tokenId, bytes memory _data) private returns (bool) {... */\n    tag_112:\n      swap5\n      swap4\n      pop\n      pop\n      pop\n      pop\n      jump\t// out\n        /* \"#utility.yul\":88:205   */\n    tag_126:\n        /* \"#utility.yul\":197:198   */\n      0x00\n        /* \"#utility.yul\":194:195   */\n      0x00\n        /* \"#utility.yul\":187:199   */\n      revert\n        /* \"#utility.yul\":334:411   */\n    tag_128:\n        /* \"#utility.yul\":371:378   */\n      0x00\n        /* \"#utility.yul\":400:405   */\n      dup2\n        /* \"#utility.yul\":389:405   */\n      swap1\n      pop\n        /* \"#utility.yul\":334:411   */\n      swap2\n      swap1\n      pop\n      jump\t// out\n        /* \"#utility.yul\":417:539   */\n    tag_129:\n        /* \"#utility.yul\":490:514   */\n      tag_175\n        /* \"#utility.yul\":508:513   */\n      dup2\n        /* \"#utility.yul\":490:514   */\n      tag_128\n      jump\t// in\n    tag_175:\n        /* \"#utility.yul\":483:488   */\n      dup2\n        /* \"#utility.yul\":480:515   */\n      eq\n        /* \"#utility.yul\":470:533   */\n      tag_176\n      jumpi\n        /* \"#utility.yul\":529:530   */\n      0x00\n        /* \"#utility.yul\":526:527   */\n      0x00\n        /* \"#utility.yul\":519:531   */\n      revert\n        /* \"#utility.yul\":470:533   */\n    tag_176:\n        /* \"#utility.yul\":417:539   */\n      pop\n      jump\t// out\n        /* \"#utility.yul\":545:684   */\n    tag_130:\n        /* \"#utility.yul\":591:596   */\n      0x00\n        /* \"#utility.yul\":629:635   */\n      dup2\n        /* \"#utility.yul\":616:636   */\n      calldataload\n        /* \"#utility.yul\":607:636   */\n      swap1\n      pop\n        /* \"#utility.yul\":645:678   */\n      tag_178\n        /* \"#utility.yul\":672:677   */\n      dup2\n        /* \"#utility.yul\":645:678   */\n      tag_129\n      jump\t// in\n    tag_178:\n        /* \"#utility.yul\":545:684   */\n      swap3\n      swap2\n      pop\n      pop\n      jump\t// out\n        /* \"#utility.yul\":690:1019   */\n    tag_15:\n        /* \"#utility.yul\":749:755   */\n      0x00\n        /* \"#utility.yul\":798:800   */\n      0x20\n        /* \"#utility.yul\":786:795   */\n      dup3\n        /* \"#utility.yul\":777:784   */\n      dup5\n        /* \"#utility.yul\":773:796   */\n      sub\n        /* \"#utility.yul\":769:801   */\n      slt\n        /* \"#utility.yul\":766:885   */\n      iszero\n      tag_180\n      jumpi\n        /* \"#utility.yul\":804:883   */\n      tag_181\n      tag_126\n      jump\t// in\n    tag_181:\n        /* \"#utility.yul\":766:885   */\n    tag_180:\n        /* \"#utility.yul\":924:925   */\n      0x00\n        /* \"#utility.yul\":949:1002   */\n      tag_182\n        /* \"#utility.yul\":994:1001   */\n      dup5\n        /* \"#utility.yul\":985:991   */\n      dup3\n        /* \"#utility.yul\":974:983   */\n      dup6\n        /* \"#utility.yul\":970:992   */\n      add\n        /* \"#utility.yul\":949:1002   */\n      tag_130\n      jump\t// in\n    tag_182:\n        /* \"#utility.yul\":939:1002   */\n      swap2\n      pop\n        /* \"#utility.yul\":895:1012   */\n      pop\n        /* \"#utility.yul\":690:1019   */\n      swap3\n      swap2\n      pop\n      pop\n      jump\t// out\n        /* \"#utility.yul\":1025:1151   */\n    tag_131:\n        /* \"#utility.yul\":1062:1069   */\n      0x00\n        /* \"#utility.yul\":1102:1144   */\n      0xffffffffffffffffffffffffffffffffffffffff\n        /* \"#utility.yul\":1095:1100   */\n      dup3\n        /* \"#utility.yul\":1091:1145   */\n      and\n        /* \"#utility.yul\":1080:1145   */\n      swap1\n      pop\n        /* \"#utility.yul\":1025:1151   */\n      swap2\n      swap1\n      pop\n      jump\t// out\n        /* \"#utility.yul\":1157:1253   */\n    tag_132:\n        /* \"#utility.yul\":1194:1201   */\n      0x00\n        /* \"#utility.yul\":1223:1247   */\n      tag_185\n        /* \"#utility.yul\":1241:1246   */\n      dup3\n        /* \"#utility.yul\":1223:1247   */\n      tag_131\n      jump\t// in\n    tag_185:\n        /* \"#utility.yul\":1212:1247   */\n      swap1\n      pop\n        /* \"#utility.yul\":1157:1253   */\n      swap2\n      swap1\n      pop\n      jump\t// out\n        /* \"#utility.yul\":1259:1377   */\n    tag_133:\n        /* \"#utility.yul\":1346:1370   */\n      tag_187\n        /* \"#utility.yul\":1364:1369   */\n      dup2\n        /* \"#utility.yul\":1346:1370   */\n      tag_132\n      jump\t// in\n    tag_187:\n        /* \"#utility.yul\":1341:1344   */\n      dup3\n        /* \"#utility.yul\":1334:1371   */\n      mstore\n        /* \"#utility.yul\":1259:1377   */\n      pop\n      pop\n      jump\t// out\n        /* \"#utility.yul\":1383:1605   */\n    tag_18:\n        /* \"#utility.yul\":1476:1480   */\n      0x00\n        /* \"#utility.yul\":1514:1516   */\n      0x20\n        /* \"#utility.yul\":1503:1512   */\n      dup3\n        /* \"#utility.yul\":1499:1517   */\n      add\n        /* \"#utility.yul\":1491:1517   */\n      swap1\n      pop\n        /* \"#utility.yul\":1527:1598   */\n      tag_189\n        /* \"#utility.yul\":1595:1596   */\n      0x00\n        /* \"#utility.yul\":1584:1593   */\n      dup4\n        /* \"#utility.yul\":1580:1597   */\n      add\n        /* \"#utility.yul\":1571:1577   */\n      dup5\n        /* \"#utility.yul\":1527:1598   */\n      tag_133\n      jump\t// in\n    tag_189:\n        /* \"#utility.yul\":1383:1605   */\n      swap3\n      swap2\n      pop\n      pop\n      jump\t// out\n        /* \"#utility.yul\":1611:1733   */\n    tag_134:\n        /* \"#utility.yul\":1684:1708   */\n      tag_191\n        /* \"#utility.yul\":1702:1707   */\n      dup2\n        /* \"#utility.yul\":1684:1708   */\n      tag_132\n      jump\t// in\n    tag_191:\n        /* \"#utility.yul\":1677:1682   */\n      dup2\n        /* \"#utility.yul\":1674:1709   */\n      eq\n        /* \"#utility.yul\":1664:1727   */\n      tag_192\n      jumpi\n        /* \"#utility.yul\":1723:1724   */\n      0x00\n        /* \"#utility.yul\":1720:1721   */\n      0x00\n        /* \"#utility.yul\":1713:1725   */\n      revert\n        /* \"#utility.yul\":1664:1727   */\n    tag_192:\n        /* \"#utility.yul\":1611:1733   */\n      pop\n      jump\t// out\n        /* \"#utility.yul\":1739:1878   */\n    tag_135:\n        /* \"#utility.yul\":1785:1790   */\n      0x00\n        /* \"#utility.yul\":1823:1829   */\n      dup2\n        /* \"#utility.yul\":1810:1830   */\n      calldataload\n        /* \"#utility.yul\":1801:1830   */\n      swap1\n      pop\n        /* \"#utility.yul\":1839:1872   */\n      tag_194\n        /* \"#utility.yul\":1866:1871   */\n      dup2\n        /* \"#utility.yul\":1839:1872   */\n      tag_134\n      jump\t// in\n    tag_194:\n        /* \"#utility.yul\":1739:1878   */\n      swap3\n      swap2\n      pop\n      pop\n      jump\t// out\n        /* \"#utility.yul\":1884:2358   */\n    tag_21:\n        /* \"#utility.yul\":1952:1958   */\n      0x00\n        /* \"#utility.yul\":1960:1966   */\n      0x00\n        /* \"#utility.yul\":2009:2011   */\n      0x40\n        /* \"#utility.yul\":1997:2006   */\n      dup4\n        /* \"#utility.yul\":1988:1995   */\n      dup6\n        /* \"#utility.yul\":1984:2007   */\n      sub\n        /* \"#utility.yul\":1980:2012   */\n      slt\n        /* \"#utility.yul\":1977:2096   */\n      iszero\n      tag_196\n      jumpi\n        /* \"#utility.yul\":2015:2094   */\n      tag_197\n      tag_126\n      jump\t// in\n    tag_197:\n        /* \"#utility.yul\":1977:2096   */\n    tag_196:\n        /* \"#utility.yul\":2135:2136   */\n      0x00\n        /* \"#utility.yul\":2160:2213   */\n      tag_198\n        /* \"#utility.yul\":2205:2212   */\n      dup6\n        /* \"#utility.yul\":2196:2202   */\n      dup3\n        /* \"#utility.yul\":2185:2194   */\n      dup7\n        /* \"#utility.yul\":2181:2203   */\n      add\n        /* \"#utility.yul\":2160:2213   */\n      tag_135\n      jump\t// in\n    tag_198:\n        /* \"#utility.yul\":2150:2213   */\n      swap3\n      pop\n        /* \"#utility.yul\":2106:2223   */\n      pop\n        /* \"#utility.yul\":2262:2264   */\n      0x20\n        /* \"#utility.yul\":2288:2341   */\n      tag_199\n        /* \"#utility.yul\":2333:2340   */\n      dup6\n        /* \"#utility.yul\":2324:2330   */\n      dup3\n        /* \"#utility.yul\":2313:2322   */\n      dup7\n        /* \"#utility.yul\":2309:2331   */\n      add\n        /* \"#utility.yul\":2288:2341   */\n      tag_130\n      jump\t// in\n    tag_199:\n        /* \"#utility.yul\":2278:2341   */\n      swap2\n      pop\n        /* \"#utility.yul\":2233:2351   */\n      pop\n        /* \"#utility.yul\":1884:2358   */\n      swap3\n      pop\n      swap3\n      swap1\n      pop\n      jump\t// out\n        /* \"#utility.yul\":2364:2983   */\n    tag_25:\n        /* \"#utility.yul\":2441:2447   */\n      0x00\n        /* \"#utility.yul\":2449:2455   */\n      0x00\n        /* \"#utility.yul\":2457:2463   */\n      0x00\n        /* \"#utility.yul\":2506:2508   */\n      0x60\n        /* \"#utility.yul\":2494:2503   */\n      dup5\n        /* \"#utility.yul\":2485:2492   */\n      dup7\n        /* \"#utility.yul\":2481:2504   */\n      sub\n        /* \"#utility.yul\":2477:2509   */\n      slt\n        /* \"#utility.yul\":2474:2593   */\n      iszero\n      tag_201\n      jumpi\n        /* \"#utility.yul\":2512:2591   */\n      tag_202\n      tag_126\n      jump\t// in\n    tag_202:\n        /* \"#utility.yul\":2474:2593   */\n    tag_201:\n        /* \"#utility.yul\":2632:2633   */\n      0x00\n        /* \"#utility.yul\":2657:2710   */\n      tag_203\n        /* \"#utility.yul\":2702:2709   */\n      dup7\n        /* \"#utility.yul\":2693:2699   */\n      dup3\n        /* \"#utility.yul\":2682:2691   */\n      dup8\n        /* \"#utility.yul\":2678:2700   */\n      add\n        /* \"#utility.yul\":2657:2710   */\n      tag_135\n      jump\t// in\n    tag_203:\n        /* \"#utility.yul\":2647:2710   */\n      swap4\n      pop\n        /* \"#utility.yul\":2603:2720   */\n      pop\n        /* \"#utility.yul\":2759:2761   */\n      0x20\n        /* \"#utility.yul\":2785:2838   */\n      tag_204\n        /* \"#utility.yul\":2830:2837   */\n      dup7\n        /* \"#utility.yul\":2821:2827   */\n      dup3\n        /* \"#utility.yul\":2810:2819   */\n      dup8\n        /* \"#utility.yul\":2806:2828   */\n      add\n        /* \"#utility.yul\":2785:2838   */\n      tag_135\n      jump\t// in\n    tag_204:\n        /* \"#utility.yul\":2775:2838   */\n      swap3\n      pop\n        /* \"#utility.yul\":2730:2848   */\n      pop\n        /* \"#utility.yul\":2887:2889   */\n      0x40\n        /* \"#utility.yul\":2913:2966   */\n      tag_205\n        /* \"#utility.yul\":2958:2965   */\n      dup7\n        /* \"#utility.yul\":2949:2955   */\n      dup3\n        /* \"#utility.yul\":2938:2947   */\n      dup8\n        /* \"#utility.yul\":2934:2956   */\n      add\n        /* \"#utility.yul\":2913:2966   */\n      tag_130\n      jump\t// in\n    tag_205:\n        /* \"#utility.yul\":2903:2966   */\n      swap2\n      pop\n        /* \"#utility.yul\":2858:2976   */\n      pop\n        /* \"#utility.yul\":2364:2983   */\n      swap3\n      pop\n      swap3\n      pop\n      swap3\n      jump\t// out\n        /* \"#utility.yul\":2989:3318   */\n    tag_39:\n        /* \"#utility.yul\":3048:3054   */\n      0x00\n        /* \"#utility.yul\":3097:3099   */\n      0x20\n        /* \"#utility.yul\":3085:3094   */\n      dup3\n        /* \"#utility.yul\":3076:3083   */\n      dup5\n        /* \"#utility.yul\":3072:3095   */\n      sub\n        /* \"#utility.yul\":3068:3100   */\n      slt\n        /* \"#utility.yul\":3065:3184   */\n      iszero\n      tag_207\n      jumpi\n        /* \"#utility.yul\":3103:3182   */\n      tag_208\n      tag_126\n      jump\t// in\n    tag_208:\n        /* \"#utility.yul\":3065:3184   */\n    tag_207:\n        /* \"#utility.yul\":3223:3224   */\n      0x00\n        /* \"#utility.yul\":3248:3301   */\n      tag_209\n        /* \"#utility.yul\":3293:3300   */\n      dup5\n        /* \"#utility.yul\":3284:3290   */\n      dup3\n        /* \"#utility.yul\":3273:3282   */\n      dup6\n        /* \"#utility.yul\":3269:3291   */\n      add\n        /* \"#utility.yul\":3248:3301   */\n      tag_135\n      jump\t// in\n    tag_209:\n        /* \"#utility.yul\":3238:3301   */\n      swap2\n      pop\n        /* \"#utility.yul\":3194:3311   */\n      pop\n        /* \"#utility.yul\":2989:3318   */\n      swap3\n      swap2\n      pop\n      pop\n      jump\t// out\n        /* \"#utility.yul\":3324:3442   */\n    tag_136:\n        /* \"#utility.yul\":3411:3435   */\n      tag_211\n        /* \"#utility.yul\":3429:3434   */\n      dup2\n        /* \"#utility.yul\":3411:3435   */\n      tag_128\n      jump\t// in\n    tag_211:\n        /* \"#utility.yul\":3406:3409   */\n      dup3\n        /* \"#utility.yul\":3399:3436   */\n      mstore\n        /* \"#utility.yul\":3324:3442   */\n      pop\n      pop\n      jump\t// out\n        /* \"#utility.yul\":3448:3670   */\n    tag_42:\n        /* \"#utility.yul\":3541:3545   */\n      0x00\n        /* \"#utility.yul\":3579:3581   */\n      0x20\n        /* \"#utility.yul\":3568:3577   */\n      dup3\n        /* \"#utility.yul\":3564:3582   */\n      add\n        /* \"#utility.yul\":3556:3582   */\n      swap1\n      pop\n        /* \"#utility.yul\":3592:3663   */\n      tag_213\n        /* \"#utility.yul\":3660:3661   */\n      0x00\n        /* \"#utility.yul\":3649:3658   */\n      dup4\n        /* \"#utility.yul\":3645:3662   */\n      add\n        /* \"#utility.yul\":3636:3642   */\n      dup5\n        /* \"#utility.yul\":3592:3663   */\n      tag_136\n      jump\t// in\n    tag_213:\n        /* \"#utility.yul\":3448:3670   */\n      swap3\n      swap2\n      pop\n      pop\n      jump\t// out\n        /* \"#utility.yul\":3676:3766   */\n    tag_137:\n        /* \"#utility.yul\":3710:3717   */\n      0x00\n        /* \"#utility.yul\":3753:3758   */\n      dup2\n        /* \"#utility.yul\":3746:3759   */\n      iszero\n        /* \"#utility.yul\":3739:3760   */\n      iszero\n        /* \"#utility.yul\":3728:3760   */\n      swap1\n      pop\n        /* \"#utility.yul\":3676:3766   */\n      swap2\n      swap1\n      pop\n      jump\t// out\n        /* \"#utility.yul\":3772:3888   */\n    tag_138:\n        /* \"#utility.yul\":3842:3863   */\n      tag_216\n        /* \"#utility.yul\":3857:3862   */\n      dup2\n        /* \"#utility.yul\":3842:3863   */\n      tag_137\n      jump\t// in\n    tag_216:\n        /* \"#utility.yul\":3835:3840   */\n      dup2\n        /* \"#utility.yul\":3832:3864   */\n      eq\n        /* \"#utility.yul\":3822:3882   */\n      tag_217\n      jumpi\n        /* \"#utility.yul\":3878:3879   */\n      0x00\n        /* \"#utility.yul\":3875:3876   */\n      0x00\n        /* \"#utility.yul\":3868:3880   */\n      revert\n        /* \"#utility.yul\":3822:3882   */\n    tag_217:\n        /* \"#utility.yul\":3772:3888   */\n      pop\n      jump\t// out\n        /* \"#utility.yul\":3894:4027   */\n    tag_139:\n        /* \"#utility.yul\":3937:3942   */\n      0x00\n        /* \"#utility.yul\":3975:3981   */\n      dup2\n        /* \"#utility.yul\":3962:3982   */\n      calldataload\n        /* \"#utility.yul\":3953:3982   */\n      swap1\n      pop\n        /* \"#utility.yul\":3991:4021   */\n      tag_219\n        /* \"#utility.yul\":4015:4020   */\n      dup2\n        /* \"#utility.yul\":3991:4021   */\n      tag_138\n      jump\t// in\n    tag_219:\n        /* \"#utility.yul\":3894:4027   */\n      swap3\n      swap2\n      pop\n      pop\n      jump\t// out\n        /* \"#utility.yul\":4033:4501   */\n    tag_45:\n        /* \"#utility.yul\":4098:4104   */\n      0x00\n        /* \"#utility.yul\":4106:4112   */\n      0x00\n        /* \"#utility.yul\":4155:4157   */\n      0x40\n        /* \"#utility.yul\":4143:4152   */\n      dup4\n        /* \"#utility.yul\":4134:4141   */\n      dup6\n        /* \"#utility.yul\":4130:4153   */\n      sub\n        /* \"#utility.yul\":4126:4158   */\n      slt\n        /* \"#utility.yul\":4123:4242   */\n      iszero\n      tag_221\n      jumpi\n        /* \"#utility.yul\":4161:4240   */\n      tag_222\n      tag_126\n      jump\t// in\n    tag_222:\n        /* \"#utility.yul\":4123:4242   */\n    tag_221:\n        /* \"#utility.yul\":4281:4282   */\n      0x00\n        /* \"#utility.yul\":4306:4359   */\n      tag_223\n        /* \"#utility.yul\":4351:4358   */\n      dup6\n        /* \"#utility.yul\":4342:4348   */\n      dup3\n        /* \"#utility.yul\":4331:4340   */\n      dup7\n        /* \"#utility.yul\":4327:4349   */\n      add\n        /* \"#utility.yul\":4306:4359   */\n      tag_135\n      jump\t// in\n    tag_223:\n        /* \"#utility.yul\":4296:4359   */\n      swap3\n      pop\n        /* \"#utility.yul\":4252:4369   */\n      pop\n        /* \"#utility.yul\":4408:4410   */\n      0x20\n        /* \"#utility.yul\":4434:4484   */\n      tag_224\n        /* \"#utility.yul\":4476:4483   */\n      dup6\n        /* \"#utility.yul\":4467:4473   */\n      dup3\n        /* \"#utility.yul\":4456:4465   */\n      dup7\n        /* \"#utility.yul\":4452:4474   */\n      add\n        /* \"#utility.yul\":4434:4484   */\n      tag_139\n      jump\t// in\n    tag_224:\n        /* \"#utility.yul\":4424:4484   */\n      swap2\n      pop\n        /* \"#utility.yul\":4379:4494   */\n      pop\n        /* \"#utility.yul\":4033:4501   */\n      swap3\n      pop\n      swap3\n      swap1\n      pop\n      jump\t// out\n        /* \"#utility.yul\":4507:4981   */\n    tag_49:\n        /* \"#utility.yul\":4575:4581   */\n      0x00\n        /* \"#utility.yul\":4583:4589   */\n      0x00\n        /* \"#utility.yul\":4632:4634   */\n      0x40\n        /* \"#utility.yul\":4620:4629   */\n      dup4\n        /* \"#utility.yul\":4611:4618   */\n      dup6\n        /* \"#utility.yul\":4607:4630   */\n      sub\n        /* \"#utility.yul\":4603:4635   */\n      slt\n        /* \"#utility.yul\":4600:4719   */\n      iszero\n      tag_226\n      jumpi\n        /* \"#utility.yul\":4638:4717   */\n      tag_227\n      tag_126\n      jump\t// in\n    tag_227:\n        /* \"#utility.yul\":4600:4719   */\n    tag_226:\n        /* \"#utility.yul\":4758:4759   */\n      0x00\n        /* \"#utility.yul\":4783:4836   */\n      tag_228\n        /* \"#utility.yul\":4828:4835   */\n      dup6\n        /* \"#utility.yul\":4819:4825   */\n      dup3\n        /* \"#utility.yul\":4808:4817   */\n      dup7\n        /* \"#utility.yul\":4804:4826   */\n      add\n        /* \"#utility.yul\":4783:4836   */\n      tag_135\n      jump\t// in\n    tag_228:\n        /* \"#utility.yul\":4773:4836   */\n      swap3\n      pop\n        /* \"#utility.yul\":4729:4846   */\n      pop\n        /* \"#utility.yul\":4885:4887   */\n      0x20\n        /* \"#utility.yul\":4911:4964   */\n      tag_229\n        /* \"#utility.yul\":4956:4963   */\n      dup6\n        /* \"#utility.yul\":4947:4953   */\n      dup3\n        /* \"#utility.yul\":4936:4945   */\n      dup7\n        /* \"#utility.yul\":4932:4954   */\n      add\n        /* \"#utility.yul\":4911:4964   */\n      tag_135\n      jump\t// in\n    tag_229:\n        /* \"#utility.yul\":4901:4964   */\n      swap2\n      pop\n        /* \"#utility.yul\":4856:4974   */\n      pop\n        /* \"#utility.yul\":4507:4981   */\n      swap3\n      pop\n      swap3\n      swap1\n      pop\n      jump\t// out\n        /* \"#utility.yul\":4987:5096   */\n    tag_140:\n        /* \"#utility.yul\":5068:5089   */\n      tag_231\n        /* \"#utility.yul\":5083:5088   */\n      dup2\n        /* \"#utility.yul\":5068:5089   */\n      tag_137\n      jump\t// in\n    tag_231:\n        /* \"#utility.yul\":5063:5066   */\n      dup3\n        /* \"#utility.yul\":5056:5090   */\n      mstore\n        /* \"#utility.yul\":4987:5096   */\n      pop\n      pop\n      jump\t// out\n        /* \"#utility.yul\":5102:5312   */\n    tag_52:\n        /* \"#utility.yul\":5189:5193   */\n      0x00\n        /* \"#utility.yul\":5227:5229   */\n      0x20\n        /* \"#utility.yul\":5216:5225   */\n      dup3\n        /* \"#utility.yul\":5212:5230   */\n      add\n        /* \"#utility.yul\":5204:5230   */\n      swap1\n      pop\n        /* \"#utility.yul\":5240:5305   */\n      tag_233\n        /* \"#utility.yul\":5302:5303   */\n      0x00\n        /* \"#utility.yul\":5291:5300   */\n      dup4\n        /* \"#utility.yul\":5287:5304   */\n      add\n        /* \"#utility.yul\":5278:5284   */\n      dup5\n        /* \"#utility.yul\":5240:5305   */\n      tag_140\n      jump\t// in\n    tag_233:\n        /* \"#utility.yul\":5102:5312   */\n      swap3\n      swap2\n      pop\n      pop\n      jump\t// out\n        /* \"#utility.yul\":5318:5487   */\n    tag_141:\n        /* \"#utility.yul\":5402:5413   */\n      0x00\n        /* \"#utility.yul\":5436:5442   */\n      dup3\n        /* \"#utility.yul\":5431:5434   */\n      dup3\n        /* \"#utility.yul\":5424:5443   */\n      mstore\n        /* \"#utility.yul\":5476:5480   */\n      0x20\n        /* \"#utility.yul\":5471:5474   */\n      dup3\n        /* \"#utility.yul\":5467:5481   */\n      add\n        /* \"#utility.yul\":5452:5481   */\n      swap1\n      pop\n        /* \"#utility.yul\":5318:5487   */\n      swap3\n      swap2\n      pop\n      pop\n      jump\t// out\n        /* \"#utility.yul\":5493:5663   */\n    tag_142:\n        /* \"#utility.yul\":5633:5655   */\n      0x546f6b656e20646f6573206e6f74206578697374000000000000000000000000\n        /* \"#utility.yul\":5629:5630   */\n      0x00\n        /* \"#utility.yul\":5621:5627   */\n      dup3\n        /* \"#utility.yul\":5617:5631   */\n      add\n        /* \"#utility.yul\":5610:5656   */\n      mstore\n        /* \"#utility.yul\":5493:5663   */\n      pop\n      jump\t// out\n        /* \"#utility.yul\":5669:6035   */\n    tag_143:\n        /* \"#utility.yul\":5811:5814   */\n      0x00\n        /* \"#utility.yul\":5832:5899   */\n      tag_237\n        /* \"#utility.yul\":5896:5898   */\n      0x14\n        /* \"#utility.yul\":5891:5894   */\n      dup4\n        /* \"#utility.yul\":5832:5899   */\n      tag_141\n      jump\t// in\n    tag_237:\n        /* \"#utility.yul\":5825:5899   */\n      swap2\n      pop\n        /* \"#utility.yul\":5908:6001   */\n      tag_238\n        /* \"#utility.yul\":5997:6000   */\n      dup3\n        /* \"#utility.yul\":5908:6001   */\n      tag_142\n      jump\t// in\n    tag_238:\n        /* \"#utility.yul\":6026:6028   */\n      0x20\n        /* \"#utility.yul\":6021:6024   */\n      dup3\n        /* \"#utility.yul\":6017:6029   */\n      add\n        /* \"#utility.yul\":6010:6029   */\n      swap1\n      pop\n        /* \"#utility.yul\":5669:6035   */\n      swap2\n      swap1\n      pop\n      jump\t// out\n        /* \"#utility.yul\":6041:6460   */\n    tag_56:\n        /* \"#utility.yul\":6207:6211   */\n      0x00\n        /* \"#utility.yul\":6245:6247   */\n      0x20\n        /* \"#utility.yul\":6234:6243   */\n      dup3\n        /* \"#utility.yul\":6230:6248   */\n      add\n        /* \"#utility.yul\":6222:6248   */\n      swap1\n      pop\n        /* \"#utility.yul\":6294:6303   */\n      dup2\n        /* \"#utility.yul\":6288:6292   */\n      dup2\n        /* \"#utility.yul\":6284:6304   */\n      sub\n        /* \"#utility.yul\":6280:6281   */\n      0x00\n        /* \"#utility.yul\":6269:6278   */\n      dup4\n        /* \"#utility.yul\":6265:6282   */\n      add\n        /* \"#utility.yul\":6258:6305   */\n      mstore\n        /* \"#utility.yul\":6322:6453   */\n      tag_240\n        /* \"#utility.yul\":6448:6452   */\n      dup2\n        /* \"#utility.yul\":6322:6453   */\n      tag_143\n      jump\t// in\n    tag_240:\n        /* \"#utility.yul\":6314:6453   */\n      swap1\n      pop\n        /* \"#utility.yul\":6041:6460   */\n      swap2\n      swap1\n      pop\n      jump\t// out\n        /* \"#utility.yul\":6466:6630   */\n    tag_144:\n        /* \"#utility.yul\":6606:6622   */\n      0x4e6f7420617574686f72697a6564000000000000000000000000000000000000\n        /* \"#utility.yul\":6602:6603   */\n      0x00\n        /* \"#utility.yul\":6594:6600   */\n      dup3\n        /* \"#utility.yul\":6590:6604   */\n      add\n        /* \"#utility.yul\":6583:6623   */\n      mstore\n        /* \"#utility.yul\":6466:6630   */\n      pop\n      jump\t// out\n        /* \"#utility.yul\":6636:7002   */\n    tag_145:\n        /* \"#utility.yul\":6778:6781   */\n      0x00\n        /* \"#utility.yul\":6799:6866   */\n      tag_243\n        /* \"#utility.yul\":6863:6865   */\n      0x0e\n        /* \"#utility.yul\":6858:6861   */\n      dup4\n        /* \"#utility.yul\":6799:6866   */\n      tag_141\n      jump\t// in\n    tag_243:\n        /* \"#utility.yul\":6792:6866   */\n      swap2\n      pop\n        /* \"#utility.yul\":6875:6968   */\n      tag_244\n        /* \"#utility.yul\":6964:6967   */\n      dup3\n        /* \"#utility.yul\":6875:6968   */\n      tag_144\n      jump\t// in\n    tag_244:\n        /* \"#utility.yul\":6993:6995   */\n      0x20\n        /* \"#utility.yul\":6988:6991   */\n      dup3\n        /* \"#utility.yul\":6984:6996   */\n      add\n        /* \"#utility.yul\":6977:6996   */\n      swap1\n      pop\n        /* \"#utility.yul\":6636:7002   */\n      swap2\n      swap1\n      pop\n      jump\t// out\n        /* \"#utility.yul\":7008:7427   */\n    tag_63:\n        /* \"#utility.yul\":7174:7178   */\n      0x00\n        /* \"#utility.yul\":7212:7214   */\n      0x20\n        /* \"#utility.yul\":7201:7210   */\n      dup3\n        /* \"#utility.yul\":7197:7215   */\n      add\n        /* \"#utility.yul\":7189:7215   */\n      swap1\n      pop\n        /* \"#utility.yul\":7261:7270   */\n      dup2\n        /* \"#utility.yul\":7255:7259   */\n      dup2\n        /* \"#utility.yul\":7251:7271   */\n      sub\n        /* \"#utility.yul\":7247:7248   */\n      0x00\n        /* \"#utility.yul\":7236:7245   */\n      dup4\n        /* \"#utility.yul\":7232:7249   */\n      add\n        /* \"#utility.yul\":7225:7272   */\n      mstore\n        /* \"#utility.yul\":7289:7420   */\n      tag_246\n        /* \"#utility.yul\":7415:7419   */\n      dup2\n        /* \"#utility.yul\":7289:7420   */\n      tag_145\n      jump\t// in\n    tag_246:\n        /* \"#utility.yul\":7281:7420   */\n      swap1\n      pop\n        /* \"#utility.yul\":7008:7427   */\n      swap2\n      swap1\n      pop\n      jump\t// out\n        /* \"#utility.yul\":7433:7609   */\n    tag_146:\n        /* \"#utility.yul\":7573:7601   */\n      0x4e6f7420617574686f72697a656420746f207472616e73666572000000000000\n        /* \"#utility.yul\":7569:7570   */\n      0x00\n        /* \"#utility.yul\":7561:7567   */\n      dup3\n        /* \"#utility.yul\":7557:7571   */\n      add\n        /* \"#utility.yul\":7550:7602   */\n      mstore\n        /* \"#utility.yul\":7433:7609   */\n      pop\n      jump\t// out\n        /* \"#utility.yul\":7615:7981   */\n    tag_147:\n        /* \"#utility.yul\":7757:7760   */\n      0x00\n        /* \"#utility.yul\":7778:7845   */\n      tag_249\n        /* \"#utility.yul\":7842:7844   */\n      0x1a\n        /* \"#utility.yul\":7837:7840   */\n      dup4\n        /* \"#utility.yul\":7778:7845   */\n      tag_141\n      jump\t// in\n    tag_249:\n        /* \"#utility.yul\":7771:7845   */\n      swap2\n      pop\n        /* \"#utility.yul\":7854:7947   */\n      tag_250\n        /* \"#utility.yul\":7943:7946   */\n      dup3\n        /* \"#utility.yul\":7854:7947   */\n      tag_146\n      jump\t// in\n    tag_250:\n        /* \"#utility.yul\":7972:7974   */\n      0x20\n        /* \"#utility.yul\":7967:7970   */\n      dup3\n        /* \"#utility.yul\":7963:7975   */\n      add\n        /* \"#utility.yul\":7956:7975   */\n      swap1\n      pop\n        /* \"#utility.yul\":7615:7981   */\n      swap2\n      swap1\n      pop\n      jump\t// out\n        /* \"#utility.yul\":7987:8406   */\n    tag_72:\n        /* \"#utility.yul\":8153:8157   */\n      0x00\n        /* \"#utility.yul\":8191:8193   */\n      0x20\n        /* \"#utility.yul\":8180:8189   */\n      dup3\n        /* \"#utility.yul\":8176:8194   */\n      add\n        /* \"#utility.yul\":8168:8194   */\n      swap1\n      pop\n        /* \"#utility.yul\":8240:8249   */\n      dup2\n        /* \"#utility.yul\":8234:8238   */\n      dup2\n        /* \"#utility.yul\":8230:8250   */\n      sub\n        /* \"#utility.yul\":8226:8227   */\n      0x00\n        /* \"#utility.yul\":8215:8224   */\n      dup4\n        /* \"#utility.yul\":8211:8228   */\n      add\n        /* \"#utility.yul\":8204:8251   */\n      mstore\n        /* \"#utility.yul\":8268:8399   */\n      tag_252\n        /* \"#utility.yul\":8394:8398   */\n      dup2\n        /* \"#utility.yul\":8268:8399   */\n      tag_147\n      jump\t// in\n    tag_252:\n        /* \"#utility.yul\":8260:8399   */\n      swap1\n      pop\n        /* \"#utility.yul\":7987:8406   */\n      swap2\n      swap1\n      pop\n      jump\t// out\n        /* \"#utility.yul\":8412:8582   */\n    tag_148:\n        /* \"#utility.yul\":8552:8574   */\n      0x4d696e7420746f207a65726f2061646472657373000000000000000000000000\n        /* \"#utility.yul\":8548:8549   */\n      0x00\n        /* \"#utility.yul\":8540:8546   */\n      dup3\n        /* \"#utility.yul\":8536:8550   */\n      add\n        /* \"#utility.yul\":8529:8575   */\n      mstore\n        /* \"#utility.yul\":8412:8582   */\n      pop\n      jump\t// out\n        /* \"#utility.yul\":8588:8954   */\n    tag_149:\n        /* \"#utility.yul\":8730:8733   */\n      0x00\n        /* \"#utility.yul\":8751:8818   */\n      tag_255\n        /* \"#utility.yul\":8815:8817   */\n      0x14\n        /* \"#utility.yul\":8810:8813   */\n      dup4\n        /* \"#utility.yul\":8751:8818   */\n      tag_141\n      jump\t// in\n    tag_255:\n        /* \"#utility.yul\":8744:8818   */\n      swap2\n      pop\n        /* \"#utility.yul\":8827:8920   */\n      tag_256\n        /* \"#utility.yul\":8916:8919   */\n      dup3\n        /* \"#utility.yul\":8827:8920   */\n      tag_148\n      jump\t// in\n    tag_256:\n        /* \"#utility.yul\":8945:8947   */\n      0x20\n        /* \"#utility.yul\":8940:8943   */\n      dup3\n        /* \"#utility.yul\":8936:8948   */\n      add\n        /* \"#utility.yul\":8929:8948   */\n      swap1\n      pop\n        /* \"#utility.yul\":8588:8954   */\n      swap2\n      swap1\n      pop\n      jump\t// out\n        /* \"#utility.yul\":8960:9379   */\n    tag_78:\n        /* \"#utility.yul\":9126:9130   */\n      0x00\n        /* \"#utility.yul\":9164:9166   */\n      0x20\n        /* \"#utility.yul\":9153:9162   */\n      dup3\n        /* \"#utility.yul\":9149:9167   */\n      add\n        /* \"#utility.yul\":9141:9167   */\n      swap1\n      pop\n        /* \"#utility.yul\":9213:9222   */\n      dup2\n        /* \"#utility.yul\":9207:9211   */\n      dup2\n        /* \"#utility.yul\":9203:9223   */\n      sub\n        /* \"#utility.yul\":9199:9200   */\n      0x00\n        /* \"#utility.yul\":9188:9197   */\n      dup4\n        /* \"#utility.yul\":9184:9201   */\n      add\n        /* \"#utility.yul\":9177:9224   */\n      mstore\n        /* \"#utility.yul\":9241:9372   */\n      tag_258\n        /* \"#utility.yul\":9367:9371   */\n      dup2\n        /* \"#utility.yul\":9241:9372   */\n      tag_149\n      jump\t// in\n    tag_258:\n        /* \"#utility.yul\":9233:9372   */\n      swap1\n      pop\n        /* \"#utility.yul\":8960:9379   */\n      swap2\n      swap1\n      pop\n      jump\t// out\n        /* \"#utility.yul\":9385:9555   */\n    tag_150:\n        /* \"#utility.yul\":9525:9547   */\n      0x546f6b656e20616c7265616479206d696e746564000000000000000000000000\n        /* \"#utility.yul\":9521:9522   */\n      0x00\n        /* \"#utility.yul\":9513:9519   */\n      dup3\n        /* \"#utility.yul\":9509:9523   */\n      add\n        /* \"#utility.yul\":9502:9548   */\n      mstore\n        /* \"#utility.yul\":9385:9555   */\n      pop\n      jump\t// out\n        /* \"#utility.yul\":9561:9927   */\n    tag_151:\n        /* \"#utility.yul\":9703:9706   */\n      0x00\n        /* \"#utility.yul\":9724:9791   */\n      tag_261\n        /* \"#utility.yul\":9788:9790   */\n      0x14\n        /* \"#utility.yul\":9783:9786   */\n      dup4\n        /* \"#utility.yul\":9724:9791   */\n      tag_141\n      jump\t// in\n    tag_261:\n        /* \"#utility.yul\":9717:9791   */\n      swap2\n      pop\n        /* \"#utility.yul\":9800:9893   */\n      tag_262\n        /* \"#utility.yul\":9889:9892   */\n      dup3\n        /* \"#utility.yul\":9800:9893   */\n      tag_150\n      jump\t// in\n    tag_262:\n        /* \"#utility.yul\":9918:9920   */\n      0x20\n        /* \"#utility.yul\":9913:9916   */\n      dup3\n        /* \"#utility.yul\":9909:9921   */\n      add\n        /* \"#utility.yul\":9902:9921   */\n      swap1\n      pop\n        /* \"#utility.yul\":9561:9927   */\n      swap2\n      swap1\n      pop\n      jump\t// out\n        /* \"#utility.yul\":9933:10352   */\n    tag_81:\n        /* \"#utility.yul\":10099:10103   */\n      0x00\n        /* \"#utility.yul\":10137:10139   */\n      0x20\n        /* \"#utility.yul\":10126:10135   */\n      dup3\n        /* \"#utility.yul\":10122:10140   */\n      add\n        /* \"#utility.yul\":10114:10140   */\n      swap1\n      pop\n        /* \"#utility.yul\":10186:10195   */\n      dup2\n        /* \"#utility.yul\":10180:10184   */\n      dup2\n        /* \"#utility.yul\":10176:10196   */\n      sub\n        /* \"#utility.yul\":10172:10173   */\n      0x00\n        /* \"#utility.yul\":10161:10170   */\n      dup4\n        /* \"#utility.yul\":10157:10174   */\n      add\n        /* \"#utility.yul\":10150:10197   */\n      mstore\n        /* \"#utility.yul\":10214:10345   */\n      tag_264\n        /* \"#utility.yul\":10340:10344   */\n      dup2\n        /* \"#utility.yul\":10214:10345   */\n      tag_151\n      jump\t// in\n    tag_264:\n        /* \"#utility.yul\":10206:10345   */\n      swap1\n      pop\n        /* \"#utility.yul\":9933:10352   */\n      swap2\n      swap1\n      pop\n      jump\t// out\n        /* \"#utility.yul\":10358:10538   */\n    tag_152:\n        /* \"#utility.yul\":10406:10483   */\n      0x4e487b7100000000000000000000000000000000000000000000000000000000\n        /* \"#utility.yul\":10403:10404   */\n      0x00\n        /* \"#utility.yul\":10396:10484   */\n      mstore\n        /* \"#utility.yul\":10503:10507   */\n      0x11\n        /* \"#utility.yul\":10500:10501   */\n      0x04\n        /* \"#utility.yul\":10493:10508   */\n      mstore\n        /* \"#utility.yul\":10527:10531   */\n      0x24\n        /* \"#utility.yul\":10524:10525   */\n      0x00\n        /* \"#utility.yul\":10517:10532   */\n      revert\n        /* \"#utility.yul\":10544:10735   */\n    tag_83:\n        /* \"#utility.yul\":10584:10587   */\n      0x00\n        /* \"#utility.yul\":10603:10623   */\n      tag_267\n        /* \"#utility.yul\":10621:10622   */\n      dup3\n        /* \"#utility.yul\":10603:10623   */\n      tag_128\n      jump\t// in\n    tag_267:\n        /* \"#utility.yul\":10598:10623   */\n      swap2\n      pop\n        /* \"#utility.yul\":10637:10657   */\n      tag_268\n        /* \"#utility.yul\":10655:10656   */\n      dup4\n        /* \"#utility.yul\":10637:10657   */\n      tag_128\n      jump\t// in\n    tag_268:\n        /* \"#utility.yul\":10632:10657   */\n      swap3\n      pop\n        /* \"#utility.yul\":10680:10681   */\n      dup3\n        /* \"#utility.yul\":10677:10678   */\n      dup3\n        /* \"#utility.yul\":10673:10682   */\n      add\n        /* \"#utility.yul\":10666:10682   */\n      swap1\n      pop\n        /* \"#utility.yul\":10701:10704   */\n      dup1\n        /* \"#utility.yul\":10698:10699   */\n      dup3\n        /* \"#utility.yul\":10695:10705   */\n      gt\n        /* \"#utility.yul\":10692:10728   */\n      iszero\n      tag_269\n      jumpi\n        /* \"#utility.yul\":10708:10726   */\n      tag_270\n      tag_152\n      jump\t// in\n    tag_270:\n        /* \"#utility.yul\":10692:10728   */\n    tag_269:\n        /* \"#utility.yul\":10544:10735   */\n      swap3\n      swap2\n      pop\n      pop\n      jump\t// out\n        /* \"#utility.yul\":10741:10970   */\n    tag_153:\n        /* \"#utility.yul\":10881:10915   */\n      0x5472616e7366657220746f206e6f6e2045524337323152656365697665722069\n        /* \"#utility.yul\":10877:10878   */\n      0x00\n        /* \"#utility.yul\":10869:10875   */\n      dup3\n        /* \"#utility.yul\":10865:10879   */\n      add\n        /* \"#utility.yul\":10858:10916   */\n      mstore\n        /* \"#utility.yul\":10950:10962   */\n      0x6d706c656d656e74657200000000000000000000000000000000000000000000\n        /* \"#utility.yul\":10945:10947   */\n      0x20\n        /* \"#utility.yul\":10937:10943   */\n      dup3\n        /* \"#utility.yul\":10933:10948   */\n      add\n        /* \"#utility.yul\":10926:10963   */\n      mstore\n        /* \"#utility.yul\":10741:10970   */\n      pop\n      jump\t// out\n        /* \"#utility.yul\":10976:11342   */\n    tag_154:\n        /* \"#utility.yul\":11118:11121   */\n      0x00\n        /* \"#utility.yul\":11139:11206   */\n      tag_273\n        /* \"#utility.yul\":11203:11205   */\n      0x2a\n        /* \"#utility.yul\":11198:11201   */\n      dup4\n        /* \"#utility.yul\":11139:11206   */\n      tag_141\n      jump\t// in\n    tag_273:\n        /* \"#utility.yul\":11132:11206   */\n      swap2\n      pop\n        /* \"#utility.yul\":11215:11308   */\n      tag_274\n        /* \"#utility.yul\":11304:11307   */\n      dup3\n        /* \"#utility.yul\":11215:11308   */\n      tag_153\n      jump\t// in\n    tag_274:\n        /* \"#utility.yul\":11333:11335   */\n      0x40\n        /* \"#utility.yul\":11328:11331   */\n      dup3\n        /* \"#utility.yul\":11324:11336   */\n      add\n        /* \"#utility.yul\":11317:11336   */\n      swap1\n      pop\n        /* \"#utility.yul\":10976:11342   */\n      swap2\n      swap1\n      pop\n      jump\t// out\n        /* \"#utility.yul\":11348:11767   */\n    tag_90:\n        /* \"#utility.yul\":11514:11518   */\n      0x00\n        /* \"#utility.yul\":11552:11554   */\n      0x20\n        /* \"#utility.yul\":11541:11550   */\n      dup3\n        /* \"#utility.yul\":11537:11555   */\n      add\n        /* \"#utility.yul\":11529:11555   */\n      swap1\n      pop\n        /* \"#utility.yul\":11601:11610   */\n      dup2\n        /* \"#utility.yul\":11595:11599   */\n      dup2\n        /* \"#utility.yul\":11591:11611   */\n      sub\n        /* \"#utility.yul\":11587:11588   */\n      0x00\n        /* \"#utility.yul\":11576:11585   */\n      dup4\n        /* \"#utility.yul\":11572:11589   */\n      add\n        /* \"#utility.yul\":11565:11612   */\n      mstore\n        /* \"#utility.yul\":11629:11760   */\n      tag_276\n        /* \"#utility.yul\":11755:11759   */\n      dup2\n        /* \"#utility.yul\":11629:11760   */\n      tag_154\n      jump\t// in\n    tag_276:\n        /* \"#utility.yul\":11621:11760   */\n      swap1\n      pop\n        /* \"#utility.yul\":11348:11767   */\n      swap2\n      swap1\n      pop\n      jump\t// out\n        /* \"#utility.yul\":11773:11938   */\n    tag_155:\n        /* \"#utility.yul\":11913:11930   */\n      0x41646472657373206973207a65726f0000000000000000000000000000000000\n        /* \"#utility.yul\":11909:11910   */\n      0x00\n        /* \"#utility.yul\":11901:11907   */\n      dup3\n        /* \"#utility.yul\":11897:11911   */\n      add\n        /* \"#utility.yul\":11890:11931   */\n      mstore\n        /* \"#utility.yul\":11773:11938   */\n      pop\n      jump\t// out\n        /* \"#utility.yul\":11944:12310   */\n    tag_156:\n        /* \"#utility.yul\":12086:12089   */\n      0x00\n        /* \"#utility.yul\":12107:12174   */\n      tag_279\n        /* \"#utility.yul\":12171:12173   */\n      0x0f\n        /* \"#utility.yul\":12166:12169   */\n      dup4\n        /* \"#utility.yul\":12107:12174   */\n      tag_141\n      jump\t// in\n    tag_279:\n        /* \"#utility.yul\":12100:12174   */\n      swap2\n      pop\n        /* \"#utility.yul\":12183:12276   */\n      tag_280\n        /* \"#utility.yul\":12272:12275   */\n      dup3\n        /* \"#utility.yul\":12183:12276   */\n      tag_155\n      jump\t// in\n    tag_280:\n        /* \"#utility.yul\":12301:12303   */\n      0x20\n        /* \"#utility.yul\":12296:12299   */\n      dup3\n        /* \"#utility.yul\":12292:12304   */\n      add\n        /* \"#utility.yul\":12285:12304   */\n      swap1\n      pop\n        /* \"#utility.yul\":11944:12310   */\n      swap2\n      swap1\n      pop\n      jump\t// out\n        /* \"#utility.yul\":12316:12735   */\n    tag_97:\n        /* \"#utility.yul\":12482:12486   */\n      0x00\n        /* \"#utility.yul\":12520:12522   */\n      0x20\n        /* \"#utility.yul\":12509:12518   */\n      dup3\n        /* \"#utility.yul\":12505:12523   */\n      add\n        /* \"#utility.yul\":12497:12523   */\n      swap1\n      pop\n        /* \"#utility.yul\":12569:12578   */\n      dup2\n        /* \"#utility.yul\":12563:12567   */\n      dup2\n        /* \"#utility.yul\":12559:12579   */\n      sub\n        /* \"#utility.yul\":12555:12556   */\n      0x00\n        /* \"#utility.yul\":12544:12553   */\n      dup4\n        /* \"#utility.yul\":12540:12557   */\n      add\n        /* \"#utility.yul\":12533:12580   */\n      mstore\n        /* \"#utility.yul\":12597:12728   */\n      tag_282\n        /* \"#utility.yul\":12723:12727   */\n      dup2\n        /* \"#utility.yul\":12597:12728   */\n      tag_156\n      jump\t// in\n    tag_282:\n        /* \"#utility.yul\":12589:12728   */\n      swap1\n      pop\n        /* \"#utility.yul\":12316:12735   */\n      swap2\n      swap1\n      pop\n      jump\t// out\n        /* \"#utility.yul\":12741:12912   */\n    tag_157:\n        /* \"#utility.yul\":12881:12904   */\n      0x46726f6d206973206e6f7420746865206f776e65720000000000000000000000\n        /* \"#utility.yul\":12877:12878   */\n      0x00\n        /* \"#utility.yul\":12869:12875   */\n      dup3\n        /* \"#utility.yul\":12865:12879   */\n      add\n        /* \"#utility.yul\":12858:12905   */\n      mstore\n        /* \"#utility.yul\":12741:12912   */\n      pop\n      jump\t// out\n        /* \"#utility.yul\":12918:13284   */\n    tag_158:\n        /* \"#utility.yul\":13060:13063   */\n      0x00\n        /* \"#utility.yul\":13081:13148   */\n      tag_285\n        /* \"#utility.yul\":13145:13147   */\n      0x15\n        /* \"#utility.yul\":13140:13143   */\n      dup4\n        /* \"#utility.yul\":13081:13148   */\n      tag_141\n      jump\t// in\n    tag_285:\n        /* \"#utility.yul\":13074:13148   */\n      swap2\n      pop\n        /* \"#utility.yul\":13157:13250   */\n      tag_286\n        /* \"#utility.yul\":13246:13249   */\n      dup3\n        /* \"#utility.yul\":13157:13250   */\n      tag_157\n      jump\t// in\n    tag_286:\n        /* \"#utility.yul\":13275:13277   */\n      0x20\n        /* \"#utility.yul\":13270:13273   */\n      dup3\n        /* \"#utility.yul\":13266:13278   */\n      add\n        /* \"#utility.yul\":13259:13278   */\n      swap1\n      pop\n        /* \"#utility.yul\":12918:13284   */\n      swap2\n      swap1\n      pop\n      jump\t// out\n        /* \"#utility.yul\":13290:13709   */\n    tag_105:\n        /* \"#utility.yul\":13456:13460   */\n      0x00\n        /* \"#utility.yul\":13494:13496   */\n      0x20\n        /* \"#utility.yul\":13483:13492   */\n      dup3\n        /* \"#utility.yul\":13479:13497   */\n      add\n        /* \"#utility.yul\":13471:13497   */\n      swap1\n      pop\n        /* \"#utility.yul\":13543:13552   */\n      dup2\n        /* \"#utility.yul\":13537:13541   */\n      dup2\n        /* \"#utility.yul\":13533:13553   */\n      sub\n        /* \"#utility.yul\":13529:13530   */\n      0x00\n        /* \"#utility.yul\":13518:13527   */\n      dup4\n        /* \"#utility.yul\":13514:13531   */\n      add\n        /* \"#utility.yul\":13507:13554   */\n      mstore\n        /* \"#utility.yul\":13571:13702   */\n      tag_288\n        /* \"#utility.yul\":13697:13701   */\n      dup2\n        /* \"#utility.yul\":13571:13702   */\n      tag_158\n      jump\t// in\n    tag_288:\n        /* \"#utility.yul\":13563:13702   */\n      swap1\n      pop\n        /* \"#utility.yul\":13290:13709   */\n      swap2\n      swap1\n      pop\n      jump\t// out\n        /* \"#utility.yul\":13715:13889   */\n    tag_159:\n        /* \"#utility.yul\":13855:13881   */\n      0x5472616e7366657220746f207a65726f20616464726573730000000000000000\n        /* \"#utility.yul\":13851:13852   */\n      0x00\n        /* \"#utility.yul\":13843:13849   */\n      dup3\n        /* \"#utility.yul\":13839:13853   */\n      add\n        /* \"#utility.yul\":13832:13882   */\n      mstore\n        /* \"#utility.yul\":13715:13889   */\n      pop\n      jump\t// out\n        /* \"#utility.yul\":13895:14261   */\n    tag_160:\n        /* \"#utility.yul\":14037:14040   */\n      0x00\n        /* \"#utility.yul\":14058:14125   */\n      tag_291\n        /* \"#utility.yul\":14122:14124   */\n      0x18\n        /* \"#utility.yul\":14117:14120   */\n      dup4\n        /* \"#utility.yul\":14058:14125   */\n      tag_141\n      jump\t// in\n    tag_291:\n        /* \"#utility.yul\":14051:14125   */\n      swap2\n      pop\n        /* \"#utility.yul\":14134:14227   */\n      tag_292\n        /* \"#utility.yul\":14223:14226   */\n      dup3\n        /* \"#utility.yul\":14134:14227   */\n      tag_159\n      jump\t// in\n    tag_292:\n        /* \"#utility.yul\":14252:14254   */\n      0x20\n        /* \"#utility.yul\":14247:14250   */\n      dup3\n        /* \"#utility.yul\":14243:14255   */\n      add\n        /* \"#utility.yul\":14236:14255   */\n      swap1\n      pop\n        /* \"#utility.yul\":13895:14261   */\n      swap2\n      swap1\n      pop\n      jump\t// out\n        /* \"#utility.yul\":14267:14686   */\n    tag_108:\n        /* \"#utility.yul\":14433:14437   */\n      0x00\n        /* \"#utility.yul\":14471:14473   */\n      0x20\n        /* \"#utility.yul\":14460:14469   */\n      dup3\n        /* \"#utility.yul\":14456:14474   */\n      add\n        /* \"#utility.yul\":14448:14474   */\n      swap1\n      pop\n        /* \"#utility.yul\":14520:14529   */\n      dup2\n        /* \"#utility.yul\":14514:14518   */\n      dup2\n        /* \"#utility.yul\":14510:14530   */\n      sub\n        /* \"#utility.yul\":14506:14507   */\n      0x00\n        /* \"#utility.yul\":14495:14504   */\n      dup4\n        /* \"#utility.yul\":14491:14508   */\n      add\n        /* \"#utility.yul\":14484:14531   */\n      mstore\n        /* \"#utility.yul\":14548:14679   */\n      tag_294\n        /* \"#utility.yul\":14674:14678   */\n      dup2\n        /* \"#utility.yul\":14548:14679   */\n      tag_160\n      jump\t// in\n    tag_294:\n        /* \"#utility.yul\":14540:14679   */\n      swap1\n      pop\n        /* \"#utility.yul\":14267:14686   */\n      swap2\n      swap1\n      pop\n      jump\t// out\n        /* \"#utility.yul\":14692:14886   */\n    tag_110:\n        /* \"#utility.yul\":14732:14736   */\n      0x00\n        /* \"#utility.yul\":14752:14772   */\n      tag_296\n        /* \"#utility.yul\":14770:14771   */\n      dup3\n        /* \"#utility.yul\":14752:14772   */\n      tag_128\n      jump\t// in\n    tag_296:\n        /* \"#utility.yul\":14747:14772   */\n      swap2\n      pop\n        /* \"#utility.yul\":14786:14806   */\n      tag_297\n        /* \"#utility.yul\":14804:14805   */\n      dup4\n        /* \"#utility.yul\":14786:14806   */\n      tag_128\n      jump\t// in\n    tag_297:\n        /* \"#utility.yul\":14781:14806   */\n      swap3\n      pop\n        /* \"#utility.yul\":14830:14831   */\n      dup3\n        /* \"#utility.yul\":14827:14828   */\n      dup3\n        /* \"#utility.yul\":14823:14832   */\n      sub\n        /* \"#utility.yul\":14815:14832   */\n      swap1\n      pop\n        /* \"#utility.yul\":14854:14855   */\n      dup2\n        /* \"#utility.yul\":14848:14852   */\n      dup2\n        /* \"#utility.yul\":14845:14856   */\n      gt\n        /* \"#utility.yul\":14842:14879   */\n      iszero\n      tag_298\n      jumpi\n        /* \"#utility.yul\":14859:14877   */\n      tag_299\n      tag_152\n      jump\t// in\n    tag_299:\n        /* \"#utility.yul\":14842:14879   */\n    tag_298:\n        /* \"#utility.yul\":14692:14886   */\n      swap3\n      swap2\n      pop\n      pop\n      jump\t// out\n        /* \"#utility.yul\":14892:14990   */\n    tag_161:\n        /* \"#utility.yul\":14943:14949   */\n      0x00\n        /* \"#utility.yul\":14977:14982   */\n      dup2\n        /* \"#utility.yul\":14971:14983   */\n      mload\n        /* \"#utility.yul\":14961:14983   */\n      swap1\n      pop\n        /* \"#utility.yul\":14892:14990   */\n      swap2\n      swap1\n      pop\n      jump\t// out\n        /* \"#utility.yul\":14996:15164   */\n    tag_162:\n        /* \"#utility.yul\":15079:15090   */\n      0x00\n        /* \"#utility.yul\":15113:15119   */\n      dup3\n        /* \"#utility.yul\":15108:15111   */\n      dup3\n        /* \"#utility.yul\":15101:15120   */\n      mstore\n        /* \"#utility.yul\":15153:15157   */\n      0x20\n        /* \"#utility.yul\":15148:15151   */\n      dup3\n        /* \"#utility.yul\":15144:15158   */\n      add\n        /* \"#utility.yul\":15129:15158   */\n      swap1\n      pop\n        /* \"#utility.yul\":14996:15164   */\n      swap3\n      swap2\n      pop\n      pop\n      jump\t// out\n        /* \"#utility.yul\":15170:15309   */\n    tag_163:\n        /* \"#utility.yul\":15259:15265   */\n      dup3\n        /* \"#utility.yul\":15254:15257   */\n      dup2\n        /* \"#utility.yul\":15249:15252   */\n      dup4\n        /* \"#utility.yul\":15243:15266   */\n      mcopy\n        /* \"#utility.yul\":15300:15301   */\n      0x00\n        /* \"#utility.yul\":15291:15297   */\n      dup4\n        /* \"#utility.yul\":15286:15289   */\n      dup4\n        /* \"#utility.yul\":15282:15298   */\n      add\n        /* \"#utility.yul\":15275:15302   */\n      mstore\n        /* \"#utility.yul\":15170:15309   */\n      pop\n      pop\n      pop\n      jump\t// out\n        /* \"#utility.yul\":15315:15417   */\n    tag_164:\n        /* \"#utility.yul\":15356:15362   */\n      0x00\n        /* \"#utility.yul\":15407:15409   */\n      0x1f\n        /* \"#utility.yul\":15403:15410   */\n      not\n        /* \"#utility.yul\":15398:15400   */\n      0x1f\n        /* \"#utility.yul\":15391:15396   */\n      dup4\n        /* \"#utility.yul\":15387:15401   */\n      add\n        /* \"#utility.yul\":15383:15411   */\n      and\n        /* \"#utility.yul\":15373:15411   */\n      swap1\n      pop\n        /* \"#utility.yul\":15315:15417   */\n      swap2\n      swap1\n      pop\n      jump\t// out\n        /* \"#utility.yul\":15423:15796   */\n    tag_165:\n        /* \"#utility.yul\":15509:15512   */\n      0x00\n        /* \"#utility.yul\":15537:15575   */\n      tag_305\n        /* \"#utility.yul\":15569:15574   */\n      dup3\n        /* \"#utility.yul\":15537:15575   */\n      tag_161\n      jump\t// in\n    tag_305:\n        /* \"#utility.yul\":15591:15661   */\n      tag_306\n        /* \"#utility.yul\":15654:15660   */\n      dup2\n        /* \"#utility.yul\":15649:15652   */\n      dup6\n        /* \"#utility.yul\":15591:15661   */\n      tag_162\n      jump\t// in\n    tag_306:\n        /* \"#utility.yul\":15584:15661   */\n      swap4\n      pop\n        /* \"#utility.yul\":15670:15735   */\n      tag_307\n        /* \"#utility.yul\":15728:15734   */\n      dup2\n        /* \"#utility.yul\":15723:15726   */\n      dup6\n        /* \"#utility.yul\":15716:15720   */\n      0x20\n        /* \"#utility.yul\":15709:15714   */\n      dup7\n        /* \"#utility.yul\":15705:15721   */\n      add\n        /* \"#utility.yul\":15670:15735   */\n      tag_163\n      jump\t// in\n    tag_307:\n        /* \"#utility.yul\":15760:15789   */\n      tag_308\n        /* \"#utility.yul\":15782:15788   */\n      dup2\n        /* \"#utility.yul\":15760:15789   */\n      tag_164\n      jump\t// in\n    tag_308:\n        /* \"#utility.yul\":15755:15758   */\n      dup5\n        /* \"#utility.yul\":15751:15790   */\n      add\n        /* \"#utility.yul\":15744:15790   */\n      swap2\n      pop\n        /* \"#utility.yul\":15513:15796   */\n      pop\n        /* \"#utility.yul\":15423:15796   */\n      swap3\n      swap2\n      pop\n      pop\n      jump\t// out\n        /* \"#utility.yul\":15802:16442   */\n    tag_115:\n        /* \"#utility.yul\":15997:16001   */\n      0x00\n        /* \"#utility.yul\":16035:16038   */\n      0x80\n        /* \"#utility.yul\":16024:16033   */\n      dup3\n        /* \"#utility.yul\":16020:16039   */\n      add\n        /* \"#utility.yul\":16012:16039   */\n      swap1\n      pop\n        /* \"#utility.yul\":16049:16120   */\n      tag_310\n        /* \"#utility.yul\":16117:16118   */\n      0x00\n        /* \"#utility.yul\":16106:16115   */\n      dup4\n        /* \"#utility.yul\":16102:16119   */\n      add\n        /* \"#utility.yul\":16093:16099   */\n      dup8\n        /* \"#utility.yul\":16049:16120   */\n      tag_133\n      jump\t// in\n    tag_310:\n        /* \"#utility.yul\":16130:16202   */\n      tag_311\n        /* \"#utility.yul\":16198:16200   */\n      0x20\n        /* \"#utility.yul\":16187:16196   */\n      dup4\n        /* \"#utility.yul\":16183:16201   */\n      add\n        /* \"#utility.yul\":16174:16180   */\n      dup7\n        /* \"#utility.yul\":16130:16202   */\n      tag_133\n      jump\t// in\n    tag_311:\n        /* \"#utility.yul\":16212:16284   */\n      tag_312\n        /* \"#utility.yul\":16280:16282   */\n      0x40\n        /* \"#utility.yul\":16269:16278   */\n      dup4\n        /* \"#utility.yul\":16265:16283   */\n      add\n        /* \"#utility.yul\":16256:16262   */\n      dup6\n        /* \"#utility.yul\":16212:16284   */\n      tag_136\n      jump\t// in\n    tag_312:\n        /* \"#utility.yul\":16331:16340   */\n      dup2\n        /* \"#utility.yul\":16325:16329   */\n      dup2\n        /* \"#utility.yul\":16321:16341   */\n      sub\n        /* \"#utility.yul\":16316:16318   */\n      0x60\n        /* \"#utility.yul\":16305:16314   */\n      dup4\n        /* \"#utility.yul\":16301:16319   */\n      add\n        /* \"#utility.yul\":16294:16342   */\n      mstore\n        /* \"#utility.yul\":16359:16435   */\n      tag_313\n        /* \"#utility.yul\":16430:16434   */\n      dup2\n        /* \"#utility.yul\":16421:16427   */\n      dup5\n        /* \"#utility.yul\":16359:16435   */\n      tag_165\n      jump\t// in\n    tag_313:\n        /* \"#utility.yul\":16351:16435   */\n      swap1\n      pop\n        /* \"#utility.yul\":15802:16442   */\n      swap6\n      swap5\n      pop\n      pop\n      pop\n      pop\n      pop\n      jump\t// out\n        /* \"#utility.yul\":16448:16597   */\n    tag_166:\n        /* \"#utility.yul\":16484:16491   */\n      0x00\n        /* \"#utility.yul\":16524:16590   */\n      0xffffffff00000000000000000000000000000000000000000000000000000000\n        /* \"#utility.yul\":16517:16522   */\n      dup3\n        /* \"#utility.yul\":16513:16591   */\n      and\n        /* \"#utility.yul\":16502:16591   */\n      swap1\n      pop\n        /* \"#utility.yul\":16448:16597   */\n      swap2\n      swap1\n      pop\n      jump\t// out\n        /* \"#utility.yul\":16603:16723   */\n    tag_167:\n        /* \"#utility.yul\":16675:16698   */\n      tag_316\n        /* \"#utility.yul\":16692:16697   */\n      dup2\n        /* \"#utility.yul\":16675:16698   */\n      tag_166\n      jump\t// in\n    tag_316:\n        /* \"#utility.yul\":16668:16673   */\n      dup2\n        /* \"#utility.yul\":16665:16699   */\n      eq\n        /* \"#utility.yul\":16655:16717   */\n      tag_317\n      jumpi\n        /* \"#utility.yul\":16713:16714   */\n      0x00\n        /* \"#utility.yul\":16710:16711   */\n      0x00\n        /* \"#utility.yul\":16703:16715   */\n      revert\n        /* \"#utility.yul\":16655:16717   */\n    tag_317:\n        /* \"#utility.yul\":16603:16723   */\n      pop\n      jump\t// out\n        /* \"#utility.yul\":16729:16870   */\n    tag_168:\n        /* \"#utility.yul\":16785:16790   */\n      0x00\n        /* \"#utility.yul\":16816:16822   */\n      dup2\n        /* \"#utility.yul\":16810:16823   */\n      mload\n        /* \"#utility.yul\":16801:16823   */\n      swap1\n      pop\n        /* \"#utility.yul\":16832:16864   */\n      tag_319\n        /* \"#utility.yul\":16858:16863   */\n      dup2\n        /* \"#utility.yul\":16832:16864   */\n      tag_167\n      jump\t// in\n    tag_319:\n        /* \"#utility.yul\":16729:16870   */\n      swap3\n      swap2\n      pop\n      pop\n      jump\t// out\n        /* \"#utility.yul\":16876:17225   */\n    tag_118:\n        /* \"#utility.yul\":16945:16951   */\n      0x00\n        /* \"#utility.yul\":16994:16996   */\n      0x20\n        /* \"#utility.yul\":16982:16991   */\n      dup3\n        /* \"#utility.yul\":16973:16980   */\n      dup5\n        /* \"#utility.yul\":16969:16992   */\n      sub\n        /* \"#utility.yul\":16965:16997   */\n      slt\n        /* \"#utility.yul\":16962:17081   */\n      iszero\n      tag_321\n      jumpi\n        /* \"#utility.yul\":17000:17079   */\n      tag_322\n      tag_126\n      jump\t// in\n    tag_322:\n        /* \"#utility.yul\":16962:17081   */\n    tag_321:\n        /* \"#utility.yul\":17120:17121   */\n      0x00\n        /* \"#utility.yul\":17145:17208   */\n      tag_323\n        /* \"#utility.yul\":17200:17207   */\n      dup5\n        /* \"#utility.yul\":17191:17197   */\n      dup3\n        /* \"#utility.yul\":17180:17189   */\n      dup6\n        /* \"#utility.yul\":17176:17198   */\n      add\n        /* \"#utility.yul\":17145:17208   */\n      tag_168\n      jump\t// in\n    tag_323:\n        /* \"#utility.yul\":17135:17208   */\n      swap2\n      pop\n        /* \"#utility.yul\":17091:17218   */\n      pop\n        /* \"#utility.yul\":16876:17225   */\n      swap3\n      swap2\n      pop\n      pop\n      jump\t// out\n\n    auxdata: 0xa264697066735822122085185c22a7e792d757b61a16077507e6f8706aeca1a4c2d3c2c7dfa701312c7464736f6c634300081e0033\n}\n",
				"bytecode": {
					"linkReferences": {},
					"object": "6080604052348015600e575f5ffd5b506116078061001c5f395ff3fe608060405234801561000f575f5ffd5b5060043610610091575f3560e01c806342842e0e1161006457806342842e0e146101195780636352211e1461013557806370a0823114610165578063a22cb46514610195578063e985e9c5146101b157610091565b8063081812fc14610095578063095ea7b3146100c557806323b872dd146100e157806340c10f19146100fd575b5f5ffd5b6100af60048036038101906100aa9190610dbf565b6101e1565b6040516100bc9190610e29565b60405180910390f35b6100df60048036038101906100da9190610e6c565b6102b7565b005b6100fb60048036038101906100f69190610eaa565b6103f1565b005b61011760048036038101906101129190610e6c565b6104d0565b005b610133600480360381019061012e9190610eaa565b6106db565b005b61014f600480360381019061014a9190610dbf565b610744565b60405161015c9190610e29565b60405180910390f35b61017f600480360381019061017a9190610efa565b6107ef565b60405161018c9190610f34565b60405180910390f35b6101af60048036038101906101aa9190610f82565b6108a3565b005b6101cb60048036038101906101c69190610fc0565b61099b565b6040516101d8919061100d565b60405180910390f35b5f5f73ffffffffffffffffffffffffffffffffffffffff165f5f8481526020019081526020015f205f9054906101000a900473ffffffffffffffffffffffffffffffffffffffff1673ffffffffffffffffffffffffffffffffffffffff160361027f576040517f08c379a000000000000000000000000000000000000000000000000000000000815260040161027690611080565b60405180910390fd5b60025f8381526020019081526020015f205f9054906101000a900473ffffffffffffffffffffffffffffffffffffffff169050919050565b5f6102c182610744565b90508073ffffffffffffffffffffffffffffffffffffffff163373ffffffffffffffffffffffffffffffffffffffff1614806103035750610302813361099b565b5b610342576040517f08c379a0000000000000000000000000000000000000000000000000000000008152600401610339906110e8565b60405180910390fd5b8260025f8481526020019081526020015f205f6101000a81548173ffffffffffffffffffffffffffffffffffffffff021916908373ffffffffffffffffffffffffffffffffffffffff160217905550818373ffffffffffffffffffffffffffffffffffffffff168273ffffffffffffffffffffffffffffffffffffffff167f8c5be1e5ebec7d5bd14f71427d1e84f3dd0314c0f7b2291e5b200ac8c7c3b92560405160405180910390a4505050565b5f6103fb82610744565b90505f8173ffffffffffffffffffffffffffffffffffffffff163373ffffffffffffffffffffffffffffffffffffffff16148061046b57503373ffffffffffffffffffffffffffffffffffffffff16610453846101e1565b73ffffffffffffffffffffffffffffffffffffffff16145b8061047c575061047b823361099b565b5b9050806104be576040517f08c379a00000000000000000000000000000000000000000000000000000000081526004016104b590611150565b60405180910390fd5b6104c9858585610a29565b5050505050565b5f73ffffffffffffffffffffffffffffffffffffffff168273ffffffffffffffffffffffffffffffffffffffff160361053e576040517f08c379a0000000000000000000000000000000000000000000000000000000008152600401610535906111b8565b60405180910390fd5b5f73ffffffffffffffffffffffffffffffffffffffff165f5f8381526020019081526020015f205f9054906101000a900473ffffffffffffffffffffffffffffffffffffffff1673ffffffffffffffffffffffffffffffffffffffff16146105db576040517f08c379a00000000000000000000000000000000000000000000000000000000081526004016105d290611220565b60405180910390fd5b6001805f8473ffffffffffffffffffffffffffffffffffffffff1673ffffffffffffffffffffffffffffffffffffffff1681526020019081526020015f205f828254610627919061126b565b92505081905550815f5f8381526020019081526020015f205f6101000a81548173ffffffffffffffffffffffffffffffffffffffff021916908373ffffffffffffffffffffffffffffffffffffffff160217905550808273ffffffffffffffffffffffffffffffffffffffff165f73ffffffffffffffffffffffffffffffffffffffff167fddf252ad1be2c89b69c2b068fc378daa952ba7f163c4a11628f55a4df523b3ef60405160405180910390a45050565b6106e68383836103f1565b61070083838360405180602001604052805f815250610c94565b61073f576040517f08c379a00000000000000000000000000000000000000000000000000000000081526004016107369061130e565b60405180910390fd5b505050565b5f5f5f5f8481526020019081526020015f205f9054906101000a900473ffffffffffffffffffffffffffffffffffffffff1690505f73ffffffffffffffffffffffffffffffffffffffff168173ffffffffffffffffffffffffffffffffffffffff16036107e6576040517f08c379a00000000000000000000000000000000000000000000000000000000081526004016107dd90611080565b60405180910390fd5b80915050919050565b5f5f73ffffffffffffffffffffffffffffffffffffffff168273ffffffffffffffffffffffffffffffffffffffff160361085e576040517f08c379a000000000000000000000000000000000000000000000000000000000815260040161085590611376565b60405180910390fd5b60015f8373ffffffffffffffffffffffffffffffffffffffff1673ffffffffffffffffffffffffffffffffffffffff1681526020019081526020015f20549050919050565b8060035f3373ffffffffffffffffffffffffffffffffffffffff1673ffffffffffffffffffffffffffffffffffffffff1681526020019081526020015f205f8473ffffffffffffffffffffffffffffffffffffffff1673ffffffffffffffffffffffffffffffffffffffff1681526020019081526020015f205f6101000a81548160ff0219169083151502179055508173ffffffffffffffffffffffffffffffffffffffff163373ffffffffffffffffffffffffffffffffffffffff167f17307eab39ab6107e8899845ad3d59bd9653f200f220920489ca2b5937696c318360405161098f919061100d565b60405180910390a35050565b5f60035f8473ffffffffffffffffffffffffffffffffffffffff1673ffffffffffffffffffffffffffffffffffffffff1681526020019081526020015f205f8373ffffffffffffffffffffffffffffffffffffffff1673ffffffffffffffffffffffffffffffffffffffff1681526020019081526020015f205f9054906101000a900460ff16905092915050565b8273ffffffffffffffffffffffffffffffffffffffff16610a4982610744565b73ffffffffffffffffffffffffffffffffffffffff1614610a9f576040517f08c379a0000000000000000000000000000000000000000000000000000000008152600401610a96906113de565b60405180910390fd5b5f73ffffffffffffffffffffffffffffffffffffffff168273ffffffffffffffffffffffffffffffffffffffff1603610b0d576040517f08c379a0000000000000000000000000000000000000000000000000000000008152600401610b0490611446565b60405180910390fd5b60025f8281526020019081526020015f205f6101000a81549073ffffffffffffffffffffffffffffffffffffffff02191690556001805f8573ffffffffffffffffffffffffffffffffffffffff1673ffffffffffffffffffffffffffffffffffffffff1681526020019081526020015f205f828254610b8c9190611464565b925050819055506001805f8473ffffffffffffffffffffffffffffffffffffffff1673ffffffffffffffffffffffffffffffffffffffff1681526020019081526020015f205f828254610bdf919061126b565b92505081905550815f5f8381526020019081526020015f205f6101000a81548173ffffffffffffffffffffffffffffffffffffffff021916908373ffffffffffffffffffffffffffffffffffffffff160217905550808273ffffffffffffffffffffffffffffffffffffffff168473ffffffffffffffffffffffffffffffffffffffff167fddf252ad1be2c89b69c2b068fc378daa952ba7f163c4a11628f55a4df523b3ef60405160405180910390a4505050565b5f5f843b90505f811115610d7a578473ffffffffffffffffffffffffffffffffffffffff1663150b7a02338887876040518563ffffffff1660e01b8152600401610ce19493929190611507565b6020604051808303815f875af1925050508015610d1c57506040513d601f19601f82011682018060405250810190610d1991906115a6565b60015b610d29575f915050610d80565b63150b7a0260e01b7bffffffffffffffffffffffffffffffffffffffffffffffffffffffff1916817bffffffffffffffffffffffffffffffffffffffffffffffffffffffff19161492505050610d80565b60019150505b949350505050565b5f5ffd5b5f819050919050565b610d9e81610d8c565b8114610da8575f5ffd5b50565b5f81359050610db981610d95565b92915050565b5f60208284031215610dd457610dd3610d88565b5b5f610de184828501610dab565b91505092915050565b5f73ffffffffffffffffffffffffffffffffffffffff82169050919050565b5f610e1382610dea565b9050919050565b610e2381610e09565b82525050565b5f602082019050610e3c5f830184610e1a565b92915050565b610e4b81610e09565b8114610e55575f5ffd5b50565b5f81359050610e6681610e42565b92915050565b5f5f60408385031215610e8257610e81610d88565b5b5f610e8f85828601610e58565b9250506020610ea085828601610dab565b9150509250929050565b5f5f5f60608486031215610ec157610ec0610d88565b5b5f610ece86828701610e58565b9350506020610edf86828701610e58565b9250506040610ef086828701610dab565b9150509250925092565b5f60208284031215610f0f57610f0e610d88565b5b5f610f1c84828501610e58565b91505092915050565b610f2e81610d8c565b82525050565b5f602082019050610f475f830184610f25565b92915050565b5f8115159050919050565b610f6181610f4d565b8114610f6b575f5ffd5b50565b5f81359050610f7c81610f58565b92915050565b5f5f60408385031215610f9857610f97610d88565b5b5f610fa585828601610e58565b9250506020610fb685828601610f6e565b9150509250929050565b5f5f60408385031215610fd657610fd5610d88565b5b5f610fe385828601610e58565b9250506020610ff485828601610e58565b9150509250929050565b61100781610f4d565b82525050565b5f6020820190506110205f830184610ffe565b92915050565b5f82825260208201905092915050565b7f546f6b656e20646f6573206e6f742065786973740000000000000000000000005f82015250565b5f61106a601483611026565b915061107582611036565b602082019050919050565b5f6020820190508181035f8301526110978161105e565b9050919050565b7f4e6f7420617574686f72697a65640000000000000000000000000000000000005f82015250565b5f6110d2600e83611026565b91506110dd8261109e565b602082019050919050565b5f6020820190508181035f8301526110ff816110c6565b9050919050565b7f4e6f7420617574686f72697a656420746f207472616e736665720000000000005f82015250565b5f61113a601a83611026565b915061114582611106565b602082019050919050565b5f6020820190508181035f8301526111678161112e565b9050919050565b7f4d696e7420746f207a65726f20616464726573730000000000000000000000005f82015250565b5f6111a2601483611026565b91506111ad8261116e565b602082019050919050565b5f6020820190508181035f8301526111cf81611196565b9050919050565b7f546f6b656e20616c7265616479206d696e7465640000000000000000000000005f82015250565b5f61120a601483611026565b9150611215826111d6565b602082019050919050565b5f6020820190508181035f830152611237816111fe565b9050919050565b7f4e487b71000000000000000000000000000000000000000000000000000000005f52601160045260245ffd5b5f61127582610d8c565b915061128083610d8c565b92508282019050808211156112985761129761123e565b5b92915050565b7f5472616e7366657220746f206e6f6e20455243373231526563656976657220695f8201527f6d706c656d656e74657200000000000000000000000000000000000000000000602082015250565b5f6112f8602a83611026565b91506113038261129e565b604082019050919050565b5f6020820190508181035f830152611325816112ec565b9050919050565b7f41646472657373206973207a65726f00000000000000000000000000000000005f82015250565b5f611360600f83611026565b915061136b8261132c565b602082019050919050565b5f6020820190508181035f83015261138d81611354565b9050919050565b7f46726f6d206973206e6f7420746865206f776e657200000000000000000000005f82015250565b5f6113c8601583611026565b91506113d382611394565b602082019050919050565b5f6020820190508181035f8301526113f5816113bc565b9050919050565b7f5472616e7366657220746f207a65726f206164647265737300000000000000005f82015250565b5f611430601883611026565b915061143b826113fc565b602082019050919050565b5f6020820190508181035f83015261145d81611424565b9050919050565b5f61146e82610d8c565b915061147983610d8c565b92508282039050818111156114915761149061123e565b5b92915050565b5f81519050919050565b5f82825260208201905092915050565b8281835e5f83830152505050565b5f601f19601f8301169050919050565b5f6114d982611497565b6114e381856114a1565b93506114f38185602086016114b1565b6114fc816114bf565b840191505092915050565b5f60808201905061151a5f830187610e1a565b6115276020830186610e1a565b6115346040830185610f25565b818103606083015261154681846114cf565b905095945050505050565b5f7fffffffff0000000000000000000000000000000000000000000000000000000082169050919050565b61158581611551565b811461158f575f5ffd5b50565b5f815190506115a08161157c565b92915050565b5f602082840312156115bb576115ba610d88565b5b5f6115c884828501611592565b9150509291505056fea264697066735822122085185c22a7e792d757b61a16077507e6f8706aeca1a4c2d3c2c7dfa701312c7464736f6c634300081e0033",
					"opcodes": "PUSH1 0x80 PUSH1 0x40 MSTORE CALLVALUE DUP1 ISZERO PUSH1 0xE JUMPI PUSH0 PUSH0 REVERT JUMPDEST POP PUSH2 0x1607 DUP1 PUSH2 0x1C PUSH0 CODECOPY PUSH0 RETURN INVALID PUSH1 0x80 PUSH1 0x40 MSTORE CALLVALUE DUP1 ISZERO PUSH2 0xF JUMPI PUSH0 PUSH0 REVERT JUMPDEST POP PUSH1 0x4 CALLDATASIZE LT PUSH2 0x91 JUMPI PUSH0 CALLDATALOAD PUSH1 0xE0 SHR DUP1 PUSH4 0x42842E0E GT PUSH2 0x64 JUMPI DUP1 PUSH4 0x42842E0E EQ PUSH2 0x119 JUMPI DUP1 PUSH4 0x6352211E EQ PUSH2 0x135 JUMPI DUP1 PUSH4 0x70A08231 EQ PUSH2 0x165 JUMPI DUP1 PUSH4 0xA22CB465 EQ PUSH2 0x195 JUMPI DUP1 PUSH4 0xE985E9C5 EQ PUSH2 0x1B1 JUMPI PUSH2 0x91 JUMP JUMPDEST DUP1 PUSH4 0x81812FC EQ PUSH2 0x95 JUMPI DUP1 PUSH4 0x95EA7B3 EQ PUSH2 0xC5 JUMPI DUP1 PUSH4 0x23B872DD EQ PUSH2 0xE1 JUMPI DUP1 PUSH4 0x40C10F19 EQ PUSH2 0xFD JUMPI JUMPDEST PUSH0 PUSH0 REVERT JUMPDEST PUSH2 0xAF PUSH1 0x4 DUP1 CALLDATASIZE SUB DUP2 ADD SWAP1 PUSH2 0xAA SWAP2 SWAP1 PUSH2 0xDBF JUMP JUMPDEST PUSH2 0x1E1 JUMP JUMPDEST PUSH1 0x40 MLOAD PUSH2 0xBC SWAP2 SWAP1 PUSH2 0xE29 JUMP JUMPDEST PUSH1 0x40 MLOAD DUP1 SWAP2 SUB SWAP1 RETURN JUMPDEST PUSH2 0xDF PUSH1 0x4 DUP1 CALLDATASIZE SUB DUP2 ADD SWAP1 PUSH2 0xDA SWAP2 SWAP1 PUSH2 0xE6C JUMP JUMPDEST PUSH2 0x2B7 JUMP JUMPDEST STOP JUMPDEST PUSH2 0xFB PUSH1 0x4 DUP1 CALLDATASIZE SUB DUP2 ADD SWAP1 PUSH2 0xF6 SWAP2 SWAP1 PUSH2 0xEAA JUMP JUMPDEST PUSH2 0x3F1 JUMP JUMPDEST STOP JUMPDEST PUSH2 0x117 PUSH1 0x4 DUP1 CALLDATASIZE SUB DUP2 ADD SWAP1 PUSH2 0x112 SWAP2 SWAP1 PUSH2 0xE6C JUMP JUMPDEST PUSH2 0x4D0 JUMP JUMPDEST STOP JUMPDEST PUSH2 0x133 PUSH1 0x4 DUP1 CALLDATASIZE SUB DUP2 ADD SWAP1 PUSH2 0x12E SWAP2 SWAP1 PUSH2 0xEAA JUMP JUMPDEST PUSH2 0x6DB JUMP JUMPDEST STOP JUMPDEST PUSH2 0x14F PUSH1 0x4 DUP1 CALLDATASIZE SUB DUP2 ADD SWAP1 PUSH2 0x14A SWAP2 SWAP1 PUSH2 0xDBF JUMP JUMPDEST PUSH2 0x744 JUMP JUMPDEST PUSH1 0x40 MLOAD PUSH2 0x15C SWAP2 SWAP1 PUSH2 0xE29 JUMP JUMPDEST PUSH1 0x40 MLOAD DUP1 SWAP2 SUB SWAP1 RETURN JUMPDEST PUSH2 0x17F PUSH1 0x4 DUP1 CALLDATASIZE SUB DUP2 ADD SWAP1 PUSH2 0x17A SWAP2 SWAP1 PUSH2 0xEFA JUMP JUMPDEST PUSH2 0x7EF JUMP JUMPDEST PUSH1 0x40 MLOAD PUSH2 0x18C SWAP2 SWAP1 PUSH2 0xF34 JUMP JUMPDEST PUSH1 0x40 MLOAD DUP1 SWAP2 SUB SWAP1 RETURN JUMPDEST PUSH2 0x1AF PUSH1 0x4 DUP1 CALLDATASIZE SUB DUP2 ADD SWAP1 PUSH2 0x1AA SWAP2 SWAP1 PUSH2 0xF82 JUMP JUMPDEST PUSH2 0x8A3 JUMP JUMPDEST STOP JUMPDEST PUSH2 0x1CB PUSH1 0x4 DUP1 CALLDATASIZE SUB DUP2 ADD SWAP1 PUSH2 0x1C6 SWAP2 SWAP1 PUSH2 0xFC0 JUMP JUMPDEST PUSH2 0x99B JUMP JUMPDEST PUSH1 0x40 MLOAD PUSH2 0x1D8 SWAP2 SWAP1 PUSH2 0x100D JUMP JUMPDEST PUSH1 0x40 MLOAD DUP1 SWAP2 SUB SWAP1 RETURN JUMPDEST PUSH0 PUSH0 PUSH20 0xFFFFFFFFFFFFFFFFFFFFFFFFFFFFFFFFFFFFFFFF AND PUSH0 PUSH0 DUP5 DUP2 MSTORE PUSH1 0x20 ADD SWAP1 DUP2 MSTORE PUSH1 0x20 ADD PUSH0 KECCAK256 PUSH0 SWAP1 SLOAD SWAP1 PUSH2 0x100 EXP SWAP1 DIV PUSH20 0xFFFFFFFFFFFFFFFFFFFFFFFFFFFFFFFFFFFFFFFF AND PUSH20 0xFFFFFFFFFFFFFFFFFFFFFFFFFFFFFFFFFFFFFFFF AND SUB PUSH2 0x27F JUMPI PUSH1 0x40 MLOAD PUSH32 0x8C379A000000000000000000000000000000000000000000000000000000000 DUP2 MSTORE PUSH1 0x4 ADD PUSH2 0x276 SWAP1 PUSH2 0x1080 JUMP JUMPDEST PUSH1 0x40 MLOAD DUP1 SWAP2 SUB SWAP1 REVERT JUMPDEST PUSH1 0x2 PUSH0 DUP4 DUP2 MSTORE PUSH1 0x20 ADD SWAP1 DUP2 MSTORE PUSH1 0x20 ADD PUSH0 KECCAK256 PUSH0 SWAP1 SLOAD SWAP1 PUSH2 0x100 EXP SWAP1 DIV PUSH20 0xFFFFFFFFFFFFFFFFFFFFFFFFFFFFFFFFFFFFFFFF AND SWAP1 POP SWAP2 SWAP1 POP JUMP JUMPDEST PUSH0 PUSH2 0x2C1 DUP3 PUSH2 0x744 JUMP JUMPDEST SWAP1 POP DUP1 PUSH20 0xFFFFFFFFFFFFFFFFFFFFFFFFFFFFFFFFFFFFFFFF AND CALLER PUSH20 0xFFFFFFFFFFFFFFFFFFFFFFFFFFFFFFFFFFFFFFFF AND EQ DUP1 PUSH2 0x303 JUMPI POP PUSH2 0x302 DUP2 CALLER PUSH2 0x99B JUMP JUMPDEST JUMPDEST PUSH2 0x342 JUMPI PUSH1 0x40 MLOAD PUSH32 0x8C379A000000000000000000000000000000000000000000000000000000000 DUP2 MSTORE PUSH1 0x4 ADD PUSH2 0x339 SWAP1 PUSH2 0x10E8 JUMP JUMPDEST PUSH1 0x40 MLOAD DUP1 SWAP2 SUB SWAP1 REVERT JUMPDEST DUP3 PUSH1 0x2 PUSH0 DUP5 DUP2 MSTORE PUSH1 0x20 ADD SWAP1 DUP2 MSTORE PUSH1 0x20 ADD PUSH0 KECCAK256 PUSH0 PUSH2 0x100 EXP DUP2 SLOAD DUP2 PUSH20 0xFFFFFFFFFFFFFFFFFFFFFFFFFFFFFFFFFFFFFFFF MUL NOT AND SWAP1 DUP4 PUSH20 0xFFFFFFFFFFFFFFFFFFFFFFFFFFFFFFFFFFFFFFFF AND MUL OR SWAP1 SSTORE POP DUP2 DUP4 PUSH20 0xFFFFFFFFFFFFFFFFFFFFFFFFFFFFFFFFFFFFFFFF AND DUP3 PUSH20 0xFFFFFFFFFFFFFFFFFFFFFFFFFFFFFFFFFFFFFFFF AND PUSH32 0x8C5BE1E5EBEC7D5BD14F71427D1E84F3DD0314C0F7B2291E5B200AC8C7C3B925 PUSH1 0x40 MLOAD PUSH1 0x40 MLOAD DUP1 SWAP2 SUB SWAP1 LOG4 POP POP POP JUMP JUMPDEST PUSH0 PUSH2 0x3FB DUP3 PUSH2 0x744 JUMP JUMPDEST SWAP1 POP PUSH0 DUP2 PUSH20 0xFFFFFFFFFFFFFFFFFFFFFFFFFFFFFFFFFFFFFFFF AND CALLER PUSH20 0xFFFFFFFFFFFFFFFFFFFFFFFFFFFFFFFFFFFFFFFF AND EQ DUP1 PUSH2 0x46B JUMPI POP CALLER PUSH20 0xFFFFFFFFFFFFFFFFFFFFFFFFFFFFFFFFFFFFFFFF AND PUSH2 0x453 DUP5 PUSH2 0x1E1 JUMP JUMPDEST PUSH20 0xFFFFFFFFFFFFFFFFFFFFFFFFFFFFFFFFFFFFFFFF AND EQ JUMPDEST DUP1 PUSH2 0x47C JUMPI POP PUSH2 0x47B DUP3 CALLER PUSH2 0x99B JUMP JUMPDEST JUMPDEST SWAP1 POP DUP1 PUSH2 0x4BE JUMPI PUSH1 0x40 MLOAD PUSH32 0x8C379A000000000000000000000000000000000000000000000000000000000 DUP2 MSTORE PUSH1 0x4 ADD PUSH2 0x4B5 SWAP1 PUSH2 0x1150 JUMP JUMPDEST PUSH1 0x40 MLOAD DUP1 SWAP2 SUB SWAP1 REVERT JUMPDEST PUSH2 0x4C9 DUP6 DUP6 DUP6 PUSH2 0xA29 JUMP JUMPDEST POP POP POP POP POP JUMP JUMPDEST PUSH0 PUSH20 0xFFFFFFFFFFFFFFFFFFFFFFFFFFFFFFFFFFFFFFFF AND DUP3 PUSH20 0xFFFFFFFFFFFFFFFFFFFFFFFFFFFFFFFFFFFFFFFF AND SUB PUSH2 0x53E JUMPI PUSH1 0x40 MLOAD PUSH32 0x8C379A000000000000000000000000000000000000000000000000000000000 DUP2 MSTORE PUSH1 0x4 ADD PUSH2 0x535 SWAP1 PUSH2 0x11B8 JUMP JUMPDEST PUSH1 0x40 MLOAD DUP1 SWAP2 SUB SWAP1 REVERT JUMPDEST PUSH0 PUSH20 0xFFFFFFFFFFFFFFFFFFFFFFFFFFFFFFFFFFFFFFFF AND PUSH0 PUSH0 DUP4 DUP2 MSTORE PUSH1 0x20 ADD SWAP1 DUP2 MSTORE PUSH1 0x20 ADD PUSH0 KECCAK256 PUSH0 SWAP1 SLOAD SWAP1 PUSH2 0x100 EXP SWAP1 DIV PUSH20 0xFFFFFFFFFFFFFFFFFFFFFFFFFFFFFFFFFFFFFFFF AND PUSH20 0xFFFFFFFFFFFFFFFFFFFFFFFFFFFFFFFFFFFFFFFF AND EQ PUSH2 0x5DB JUMPI PUSH1 0x40 MLOAD PUSH32 0x8C379A000000000000000000000000000000000000000000000000000000000 DUP2 MSTORE PUSH1 0x4 ADD PUSH2 0x5D2 SWAP1 PUSH2 0x1220 JUMP JUMPDEST PUSH1 0x40 MLOAD DUP1 SWAP2 SUB SWAP1 REVERT JUMPDEST PUSH1 0x1 DUP1 PUSH0 DUP5 PUSH20 0xFFFFFFFFFFFFFFFFFFFFFFFFFFFFFFFFFFFFFFFF AND PUSH20 0xFFFFFFFFFFFFFFFFFFFFFFFFFFFFFFFFFFFFFFFF AND DUP2 MSTORE PUSH1 0x20 ADD SWAP1 DUP2 MSTORE PUSH1 0x20 ADD PUSH0 KECCAK256 PUSH0 DUP3 DUP3 SLOAD PUSH2 0x627 SWAP2 SWAP1 PUSH2 0x126B JUMP JUMPDEST SWAP3 POP POP DUP2 SWAP1 SSTORE POP DUP2 PUSH0 PUSH0 DUP4 DUP2 MSTORE PUSH1 0x20 ADD SWAP1 DUP2 MSTORE PUSH1 0x20 ADD PUSH0 KECCAK256 PUSH0 PUSH2 0x100 EXP DUP2 SLOAD DUP2 PUSH20 0xFFFFFFFFFFFFFFFFFFFFFFFFFFFFFFFFFFFFFFFF MUL NOT AND SWAP1 DUP4 PUSH20 0xFFFFFFFFFFFFFFFFFFFFFFFFFFFFFFFFFFFFFFFF AND MUL OR SWAP1 SSTORE POP DUP1 DUP3 PUSH20 0xFFFFFFFFFFFFFFFFFFFFFFFFFFFFFFFFFFFFFFFF AND PUSH0 PUSH20 0xFFFFFFFFFFFFFFFFFFFFFFFFFFFFFFFFFFFFFFFF AND PUSH32 0xDDF252AD1BE2C89B69C2B068FC378DAA952BA7F163C4A11628F55A4DF523B3EF PUSH1 0x40 MLOAD PUSH1 0x40 MLOAD DUP1 SWAP2 SUB SWAP1 LOG4 POP POP JUMP JUMPDEST PUSH2 0x6E6 DUP4 DUP4 DUP4 PUSH2 0x3F1 JUMP JUMPDEST PUSH2 0x700 DUP4 DUP4 DUP4 PUSH1 0x40 MLOAD DUP1 PUSH1 0x20 ADD PUSH1 0x40 MSTORE DUP1 PUSH0 DUP2 MSTORE POP PUSH2 0xC94 JUMP JUMPDEST PUSH2 0x73F JUMPI PUSH1 0x40 MLOAD PUSH32 0x8C379A000000000000000000000000000000000000000000000000000000000 DUP2 MSTORE PUSH1 0x4 ADD PUSH2 0x736 SWAP1 PUSH2 0x130E JUMP JUMPDEST PUSH1 0x40 MLOAD DUP1 SWAP2 SUB SWAP1 REVERT JUMPDEST POP POP POP JUMP JUMPDEST PUSH0 PUSH0 PUSH0 PUSH0 DUP5 DUP2 MSTORE PUSH1 0x20 ADD SWAP1 DUP2 MSTORE PUSH1 0x20 ADD PUSH0 KECCAK256 PUSH0 SWAP1 SLOAD SWAP1 PUSH2 0x100 EXP SWAP1 DIV PUSH20 0xFFFFFFFFFFFFFFFFFFFFFFFFFFFFFFFFFFFFFFFF AND SWAP1 POP PUSH0 PUSH20 0xFFFFFFFFFFFFFFFFFFFFFFFFFFFFFFFFFFFFFFFF AND DUP2 PUSH20 0xFFFFFFFFFFFFFFFFFFFFFFFFFFFFFFFFFFFFFFFF AND SUB PUSH2 0x7E6 JUMPI PUSH1 0x40 MLOAD PUSH32 0x8C379A000000000000000000000000000000000000000000000000000000000 DUP2 MSTORE PUSH1 0x4 ADD PUSH2 0x7DD SWAP1 PUSH2 0x1080 JUMP JUMPDEST PUSH1 0x40 MLOAD DUP1 SWAP2 SUB SWAP1 REVERT JUMPDEST DUP1 SWAP2 POP POP SWAP2 SWAP1 POP JUMP JUMPDEST PUSH0 PUSH0 PUSH20 0xFFFFFFFFFFFFFFFFFFFFFFFFFFFFFFFFFFFFFFFF AND DUP3 PUSH20 0xFFFFFFFFFFFFFFFFFFFFFFFFFFFFFFFFFFFFFFFF AND SUB PUSH2 0x85E JUMPI PUSH1 0x40 MLOAD PUSH32 0x8C379A000000000000000000000000000000000000000000000000000000000 DUP2 MSTORE PUSH1 0x4 ADD PUSH2 0x855 SWAP1 PUSH2 0x1376 JUMP JUMPDEST PUSH1 0x40 MLOAD DUP1 SWAP2 SUB SWAP1 REVERT JUMPDEST PUSH1 0x1 PUSH0 DUP4 PUSH20 0xFFFFFFFFFFFFFFFFFFFFFFFFFFFFFFFFFFFFFFFF AND PUSH20 0xFFFFFFFFFFFFFFFFFFFFFFFFFFFFFFFFFFFFFFFF AND DUP2 MSTORE PUSH1 0x20 ADD SWAP1 DUP2 MSTORE PUSH1 0x20 ADD PUSH0 KECCAK256 SLOAD SWAP1 POP SWAP2 SWAP1 POP JUMP JUMPDEST DUP1 PUSH1 0x3 PUSH0 CALLER PUSH20 0xFFFFFFFFFFFFFFFFFFFFFFFFFFFFFFFFFFFFFFFF AND PUSH20 0xFFFFFFFFFFFFFFFFFFFFFFFFFFFFFFFFFFFFFFFF AND DUP2 MSTORE PUSH1 0x20 ADD SWAP1 DUP2 MSTORE PUSH1 0x20 ADD PUSH0 KECCAK256 PUSH0 DUP5 PUSH20 0xFFFFFFFFFFFFFFFFFFFFFFFFFFFFFFFFFFFFFFFF AND PUSH20 0xFFFFFFFFFFFFFFFFFFFFFFFFFFFFFFFFFFFFFFFF AND DUP2 MSTORE PUSH1 0x20 ADD SWAP1 DUP2 MSTORE PUSH1 0x20 ADD PUSH0 KECCAK256 PUSH0 PUSH2 0x100 EXP DUP2 SLOAD DUP2 PUSH1 0xFF MUL NOT AND SWAP1 DUP4 ISZERO ISZERO MUL OR SWAP1 SSTORE POP DUP2 PUSH20 0xFFFFFFFFFFFFFFFFFFFFFFFFFFFFFFFFFFFFFFFF AND CALLER PUSH20 0xFFFFFFFFFFFFFFFFFFFFFFFFFFFFFFFFFFFFFFFF AND PUSH32 0x17307EAB39AB6107E8899845AD3D59BD9653F200F220920489CA2B5937696C31 DUP4 PUSH1 0x40 MLOAD PUSH2 0x98F SWAP2 SWAP1 PUSH2 0x100D JUMP JUMPDEST PUSH1 0x40 MLOAD DUP1 SWAP2 SUB SWAP1 LOG3 POP POP JUMP JUMPDEST PUSH0 PUSH1 0x3 PUSH0 DUP5 PUSH20 0xFFFFFFFFFFFFFFFFFFFFFFFFFFFFFFFFFFFFFFFF AND PUSH20 0xFFFFFFFFFFFFFFFFFFFFFFFFFFFFFFFFFFFFFFFF AND DUP2 MSTORE PUSH1 0x20 ADD SWAP1 DUP2 MSTORE PUSH1 0x20 ADD PUSH0 KECCAK256 PUSH0 DUP4 PUSH20 0xFFFFFFFFFFFFFFFFFFFFFFFFFFFFFFFFFFFFFFFF AND PUSH20 0xFFFFFFFFFFFFFFFFFFFFFFFFFFFFFFFFFFFFFFFF AND DUP2 MSTORE PUSH1 0x20 ADD SWAP1 DUP2 MSTORE PUSH1 0x20 ADD PUSH0 KECCAK256 PUSH0 SWAP1 SLOAD SWAP1 PUSH2 0x100 EXP SWAP1 DIV PUSH1 0xFF AND SWAP1 POP SWAP3 SWAP2 POP POP JUMP JUMPDEST DUP3 PUSH20 0xFFFFFFFFFFFFFFFFFFFFFFFFFFFFFFFFFFFFFFFF AND PUSH2 0xA49 DUP3 PUSH2 0x744 JUMP JUMPDEST PUSH20 0xFFFFFFFFFFFFFFFFFFFFFFFFFFFFFFFFFFFFFFFF AND EQ PUSH2 0xA9F JUMPI PUSH1 0x40 MLOAD PUSH32 0x8C379A000000000000000000000000000000000000000000000000000000000 DUP2 MSTORE PUSH1 0x4 ADD PUSH2 0xA96 SWAP1 PUSH2 0x13DE JUMP JUMPDEST PUSH1 0x40 MLOAD DUP1 SWAP2 SUB SWAP1 REVERT JUMPDEST PUSH0 PUSH20 0xFFFFFFFFFFFFFFFFFFFFFFFFFFFFFFFFFFFFFFFF AND DUP3 PUSH20 0xFFFFFFFFFFFFFFFFFFFFFFFFFFFFFFFFFFFFFFFF AND SUB PUSH2 0xB0D JUMPI PUSH1 0x40 MLOAD PUSH32 0x8C379A000000000000000000000000000000000000000000000000000000000 DUP2 MSTORE PUSH1 0x4 ADD PUSH2 0xB04 SWAP1 PUSH2 0x1446 JUMP JUMPDEST PUSH1 0x40 MLOAD DUP1 SWAP2 SUB SWAP1 REVERT JUMPDEST PUSH1 0x2 PUSH0 DUP3 DUP2 MSTORE PUSH1 0x20 ADD SWAP1 DUP2 MSTORE PUSH1 0x20 ADD PUSH0 KECCAK256 PUSH0 PUSH2 0x100 EXP DUP2 SLOAD SWAP1 PUSH20 0xFFFFFFFFFFFFFFFFFFFFFFFFFFFFFFFFFFFFFFFF MUL NOT AND SWAP1 SSTORE PUSH1 0x1 DUP1 PUSH0 DUP6 PUSH20 0xFFFFFFFFFFFFFFFFFFFFFFFFFFFFFFFFFFFFFFFF AND PUSH20 0xFFFFFFFFFFFFFFFFFFFFFFFFFFFFFFFFFFFFFFFF AND DUP2 MSTORE PUSH1 0x20 ADD SWAP1 DUP2 MSTORE PUSH1 0x20 ADD PUSH0 KECCAK256 PUSH0 DUP3 DUP3 SLOAD PUSH2 0xB8C SWAP2 SWAP1 PUSH2 0x1464 JUMP JUMPDEST SWAP3 POP POP DUP2 SWAP1 SSTORE POP PUSH1 0x1 DUP1 PUSH0 DUP5 PUSH20 0xFFFFFFFFFFFFFFFFFFFFFFFFFFFFFFFFFFFFFFFF AND PUSH20 0xFFFFFFFFFFFFFFFFFFFFFFFFFFFFFFFFFFFFFFFF AND DUP2 MSTORE PUSH1 0x20 ADD SWAP1 DUP2 MSTORE PUSH1 0x20 ADD PUSH0 KECCAK256 PUSH0 DUP3 DUP3 SLOAD PUSH2 0xBDF SWAP2 SWAP1 PUSH2 0x126B JUMP JUMPDEST SWAP3 POP POP DUP2 SWAP1 SSTORE POP DUP2 PUSH0 PUSH0 DUP4 DUP2 MSTORE PUSH1 0x20 ADD SWAP1 DUP2 MSTORE PUSH1 0x20 ADD PUSH0 KECCAK256 PUSH0 PUSH2 0x100 EXP DUP2 SLOAD DUP2 PUSH20 0xFFFFFFFFFFFFFFFFFFFFFFFFFFFFFFFFFFFFFFFF MUL NOT AND SWAP1 DUP4 PUSH20 0xFFFFFFFFFFFFFFFFFFFFFFFFFFFFFFFFFFFFFFFF AND MUL OR SWAP1 SSTORE POP DUP1 DUP3 PUSH20 0xFFFFFFFFFFFFFFFFFFFFFFFFFFFFFFFFFFFFFFFF AND DUP5 PUSH20 0xFFFFFFFFFFFFFFFFFFFFFFFFFFFFFFFFFFFFFFFF AND PUSH32 0xDDF252AD1BE2C89B69C2B068FC378DAA952BA7F163C4A11628F55A4DF523B3EF PUSH1 0x40 MLOAD PUSH1 0x40 MLOAD DUP1 SWAP2 SUB SWAP1 LOG4 POP POP POP JUMP JUMPDEST PUSH0 PUSH0 DUP5 EXTCODESIZE SWAP1 POP PUSH0 DUP2 GT ISZERO PUSH2 0xD7A JUMPI DUP5 PUSH20 0xFFFFFFFFFFFFFFFFFFFFFFFFFFFFFFFFFFFFFFFF AND PUSH4 0x150B7A02 CALLER DUP9 DUP8 DUP8 PUSH1 0x40 MLOAD DUP6 PUSH4 0xFFFFFFFF AND PUSH1 0xE0 SHL DUP2 MSTORE PUSH1 0x4 ADD PUSH2 0xCE1 SWAP5 SWAP4 SWAP3 SWAP2 SWAP1 PUSH2 0x1507 JUMP JUMPDEST PUSH1 0x20 PUSH1 0x40 MLOAD DUP1 DUP4 SUB DUP2 PUSH0 DUP8 GAS CALL SWAP3 POP POP POP DUP1 ISZERO PUSH2 0xD1C JUMPI POP PUSH1 0x40 MLOAD RETURNDATASIZE PUSH1 0x1F NOT PUSH1 0x1F DUP3 ADD AND DUP3 ADD DUP1 PUSH1 0x40 MSTORE POP DUP2 ADD SWAP1 PUSH2 0xD19 SWAP2 SWAP1 PUSH2 0x15A6 JUMP JUMPDEST PUSH1 0x1 JUMPDEST PUSH2 0xD29 JUMPI PUSH0 SWAP2 POP POP PUSH2 0xD80 JUMP JUMPDEST PUSH4 0x150B7A02 PUSH1 0xE0 SHL PUSH28 0xFFFFFFFFFFFFFFFFFFFFFFFFFFFFFFFFFFFFFFFFFFFFFFFFFFFFFFFF NOT AND DUP2 PUSH28 0xFFFFFFFFFFFFFFFFFFFFFFFFFFFFFFFFFFFFFFFFFFFFFFFFFFFFFFFF NOT AND EQ SWAP3 POP POP POP PUSH2 0xD80 JUMP JUMPDEST PUSH1 0x1 SWAP2 POP POP JUMPDEST SWAP5 SWAP4 POP POP POP POP JUMP JUMPDEST PUSH0 PUSH0 REVERT JUMPDEST PUSH0 DUP2 SWAP1 POP SWAP2 SWAP1 POP JUMP JUMPDEST PUSH2 0xD9E DUP2 PUSH2 0xD8C JUMP JUMPDEST DUP2 EQ PUSH2 0xDA8 JUMPI PUSH0 PUSH0 REVERT JUMPDEST POP JUMP JUMPDEST PUSH0 DUP2 CALLDATALOAD SWAP1 POP PUSH2 0xDB9 DUP2 PUSH2 0xD95 JUMP JUMPDEST SWAP3 SWAP2 POP POP JUMP JUMPDEST PUSH0 PUSH1 0x20 DUP3 DUP5 SUB SLT ISZERO PUSH2 0xDD4 JUMPI PUSH2 0xDD3 PUSH2 0xD88 JUMP JUMPDEST JUMPDEST PUSH0 PUSH2 0xDE1 DUP5 DUP3 DUP6 ADD PUSH2 0xDAB JUMP JUMPDEST SWAP2 POP POP SWAP3 SWAP2 POP POP JUMP JUMPDEST PUSH0 PUSH20 0xFFFFFFFFFFFFFFFFFFFFFFFFFFFFFFFFFFFFFFFF DUP3 AND SWAP1 POP SWAP2 SWAP1 POP JUMP JUMPDEST PUSH0 PUSH2 0xE13 DUP3 PUSH2 0xDEA JUMP JUMPDEST SWAP1 POP SWAP2 SWAP1 POP JUMP JUMPDEST PUSH2 0xE23 DUP2 PUSH2 0xE09 JUMP JUMPDEST DUP3 MSTORE POP POP JUMP JUMPDEST PUSH0 PUSH1 0x20 DUP3 ADD SWAP1 POP PUSH2 0xE3C PUSH0 DUP4 ADD DUP5 PUSH2 0xE1A JUMP JUMPDEST SWAP3 SWAP2 POP POP JUMP JUMPDEST PUSH2 0xE4B DUP2 PUSH2 0xE09 JUMP JUMPDEST DUP2 EQ PUSH2 0xE55 JUMPI PUSH0 PUSH0 REVERT JUMPDEST POP JUMP JUMPDEST PUSH0 DUP2 CALLDATALOAD SWAP1 POP PUSH2 0xE66 DUP2 PUSH2 0xE42 JUMP JUMPDEST SWAP3 SWAP2 POP POP JUMP JUMPDEST PUSH0 PUSH0 PUSH1 0x40 DUP4 DUP6 SUB SLT ISZERO PUSH2 0xE82 JUMPI PUSH2 0xE81 PUSH2 0xD88 JUMP JUMPDEST JUMPDEST PUSH0 PUSH2 0xE8F DUP6 DUP3 DUP7 ADD PUSH2 0xE58 JUMP JUMPDEST SWAP3 POP POP PUSH1 0x20 PUSH2 0xEA0 DUP6 DUP3 DUP7 ADD PUSH2 0xDAB JUMP JUMPDEST SWAP2 POP POP SWAP3 POP SWAP3 SWAP1 POP JUMP JUMPDEST PUSH0 PUSH0 PUSH0 PUSH1 0x60 DUP5 DUP7 SUB SLT ISZERO PUSH2 0xEC1 JUMPI PUSH2 0xEC0 PUSH2 0xD88 JUMP JUMPDEST JUMPDEST PUSH0 PUSH2 0xECE DUP7 DUP3 DUP8 ADD PUSH2 0xE58 JUMP JUMPDEST SWAP4 POP POP PUSH1 0x20 PUSH2 0xEDF DUP7 DUP3 DUP8 ADD PUSH2 0xE58 JUMP JUMPDEST SWAP3 POP POP PUSH1 0x40 PUSH2 0xEF0 DUP7 DUP3 DUP8 ADD PUSH2 0xDAB JUMP JUMPDEST SWAP2 POP POP SWAP3 POP SWAP3 POP SWAP3 JUMP JUMPDEST PUSH0 PUSH1 0x20 DUP3 DUP5 SUB SLT ISZERO PUSH2 0xF0F JUMPI PUSH2 0xF0E PUSH2 0xD88 JUMP JUMPDEST JUMPDEST PUSH0 PUSH2 0xF1C DUP5 DUP3 DUP6 ADD PUSH2 0xE58 JUMP JUMPDEST SWAP2 POP POP SWAP3 SWAP2 POP POP JUMP JUMPDEST PUSH2 0xF2E DUP2 PUSH2 0xD8C JUMP JUMPDEST DUP3 MSTORE POP POP JUMP JUMPDEST PUSH0 PUSH1 0x20 DUP3 ADD SWAP1 POP PUSH2 0xF47 PUSH0 DUP4 ADD DUP5 PUSH2 0xF25 JUMP JUMPDEST SWAP3 SWAP2 POP POP JUMP JUMPDEST PUSH0 DUP2 ISZERO ISZERO SWAP1 POP SWAP2 SWAP1 POP JUMP JUMPDEST PUSH2 0xF61 DUP2 PUSH2 0xF4D JUMP JUMPDEST DUP2 EQ PUSH2 0xF6B JUMPI PUSH0 PUSH0 REVERT JUMPDEST POP JUMP JUMPDEST PUSH0 DUP2 CALLDATALOAD SWAP1 POP PUSH2 0xF7C DUP2 PUSH2 0xF58 JUMP JUMPDEST SWAP3 SWAP2 POP POP JUMP JUMPDEST PUSH0 PUSH0 PUSH1 0x40 DUP4 DUP6 SUB SLT ISZERO PUSH2 0xF98 JUMPI PUSH2 0xF97 PUSH2 0xD88 JUMP JUMPDEST JUMPDEST PUSH0 PUSH2 0xFA5 DUP6 DUP3 DUP7 ADD PUSH2 0xE58 JUMP JUMPDEST SWAP3 POP POP PUSH1 0x20 PUSH2 0xFB6 DUP6 DUP3 DUP7 ADD PUSH2 0xF6E JUMP JUMPDEST SWAP2 POP POP SWAP3 POP SWAP3 SWAP1 POP JUMP JUMPDEST PUSH0 PUSH0 PUSH1 0x40 DUP4 DUP6 SUB SLT ISZERO PUSH2 0xFD6 JUMPI PUSH2 0xFD5 PUSH2 0xD88 JUMP JUMPDEST JUMPDEST PUSH0 PUSH2 0xFE3 DUP6 DUP3 DUP7 ADD PUSH2 0xE58 JUMP JUMPDEST SWAP3 POP POP PUSH1 0x20 PUSH2 0xFF4 DUP6 DUP3 DUP7 ADD PUSH2 0xE58 JUMP JUMPDEST SWAP2 POP POP SWAP3 POP SWAP3 SWAP1 POP JUMP JUMPDEST PUSH2 0x1007 DUP2 PUSH2 0xF4D JUMP JUMPDEST DUP3 MSTORE POP POP JUMP JUMPDEST PUSH0 PUSH1 0x20 DUP3 ADD SWAP1 POP PUSH2 0x1020 PUSH0 DUP4 ADD DUP5 PUSH2 0xFFE JUMP JUMPDEST SWAP3 SWAP2 POP POP JUMP JUMPDEST PUSH0 DUP3 DUP3 MSTORE PUSH1 0x20 DUP3 ADD SWAP1 POP SWAP3 SWAP2 POP POP JUMP JUMPDEST PUSH32 0x546F6B656E20646F6573206E6F74206578697374000000000000000000000000 PUSH0 DUP3 ADD MSTORE POP JUMP JUMPDEST PUSH0 PUSH2 0x106A PUSH1 0x14 DUP4 PUSH2 0x1026 JUMP JUMPDEST SWAP2 POP PUSH2 0x1075 DUP3 PUSH2 0x1036 JUMP JUMPDEST PUSH1 0x20 DUP3 ADD SWAP1 POP SWAP2 SWAP1 POP JUMP JUMPDEST PUSH0 PUSH1 0x20 DUP3 ADD SWAP1 POP DUP2 DUP2 SUB PUSH0 DUP4 ADD MSTORE PUSH2 0x1097 DUP2 PUSH2 0x105E JUMP JUMPDEST SWAP1 POP SWAP2 SWAP1 POP JUMP JUMPDEST PUSH32 0x4E6F7420617574686F72697A6564000000000000000000000000000000000000 PUSH0 DUP3 ADD MSTORE POP JUMP JUMPDEST PUSH0 PUSH2 0x10D2 PUSH1 0xE DUP4 PUSH2 0x1026 JUMP JUMPDEST SWAP2 POP PUSH2 0x10DD DUP3 PUSH2 0x109E JUMP JUMPDEST PUSH1 0x20 DUP3 ADD SWAP1 POP SWAP2 SWAP1 POP JUMP JUMPDEST PUSH0 PUSH1 0x20 DUP3 ADD SWAP1 POP DUP2 DUP2 SUB PUSH0 DUP4 ADD MSTORE PUSH2 0x10FF DUP2 PUSH2 0x10C6 JUMP JUMPDEST SWAP1 POP SWAP2 SWAP1 POP JUMP JUMPDEST PUSH32 0x4E6F7420617574686F72697A656420746F207472616E73666572000000000000 PUSH0 DUP3 ADD MSTORE POP JUMP JUMPDEST PUSH0 PUSH2 0x113A PUSH1 0x1A DUP4 PUSH2 0x1026 JUMP JUMPDEST SWAP2 POP PUSH2 0x1145 DUP3 PUSH2 0x1106 JUMP JUMPDEST PUSH1 0x20 DUP3 ADD SWAP1 POP SWAP2 SWAP1 POP JUMP JUMPDEST PUSH0 PUSH1 0x20 DUP3 ADD SWAP1 POP DUP2 DUP2 SUB PUSH0 DUP4 ADD MSTORE PUSH2 0x1167 DUP2 PUSH2 0x112E JUMP JUMPDEST SWAP1 POP SWAP2 SWAP1 POP JUMP JUMPDEST PUSH32 0x4D696E7420746F207A65726F2061646472657373000000000000000000000000 PUSH0 DUP3 ADD MSTORE POP JUMP JUMPDEST PUSH0 PUSH2 0x11A2 PUSH1 0x14 DUP4 PUSH2 0x1026 JUMP JUMPDEST SWAP2 POP PUSH2 0x11AD DUP3 PUSH2 0x116E JUMP JUMPDEST PUSH1 0x20 DUP3 ADD SWAP1 POP SWAP2 SWAP1 POP JUMP JUMPDEST PUSH0 PUSH1 0x20 DUP3 ADD SWAP1 POP DUP2 DUP2 SUB PUSH0 DUP4 ADD MSTORE PUSH2 0x11CF DUP2 PUSH2 0x1196 JUMP JUMPDEST SWAP1 POP SWAP2 SWAP1 POP JUMP JUMPDEST PUSH32 0x546F6B656E20616C7265616479206D696E746564000000000000000000000000 PUSH0 DUP3 ADD MSTORE POP JUMP JUMPDEST PUSH0 PUSH2 0x120A PUSH1 0x14 DUP4 PUSH2 0x1026 JUMP JUMPDEST SWAP2 POP PUSH2 0x1215 DUP3 PUSH2 0x11D6 JUMP JUMPDEST PUSH1 0x20 DUP3 ADD SWAP1 POP SWAP2 SWAP1 POP JUMP JUMPDEST PUSH0 PUSH1 0x20 DUP3 ADD SWAP1 POP DUP2 DUP2 SUB PUSH0 DUP4 ADD MSTORE PUSH2 0x1237 DUP2 PUSH2 0x11FE JUMP JUMPDEST SWAP1 POP SWAP2 SWAP1 POP JUMP JUMPDEST PUSH32 0x4E487B7100000000000000000000000000000000000000000000000000000000 PUSH0 MSTORE PUSH1 0x11 PUSH1 0x4 MSTORE PUSH1 0x24 PUSH0 REVERT JUMPDEST PUSH0 PUSH2 0x1275 DUP3 PUSH2 0xD8C JUMP JUMPDEST SWAP2 POP PUSH2 0x1280 DUP4 PUSH2 0xD8C JUMP JUMPDEST SWAP3 POP DUP3 DUP3 ADD SWAP1 POP DUP1 DUP3 GT ISZERO PUSH2 0x1298 JUMPI PUSH2 0x1297 PUSH2 0x123E JUMP JUMPDEST JUMPDEST SWAP3 SWAP2 POP POP JUMP JUMPDEST PUSH32 0x5472616E7366657220746F206E6F6E2045524337323152656365697665722069 PUSH0 DUP3 ADD MSTORE PUSH32 0x6D706C656D656E74657200000000000000000000000000000000000000000000 PUSH1 0x20 DUP3 ADD MSTORE POP JUMP JUMPDEST PUSH0 PUSH2 0x12F8 PUSH1 0x2A DUP4 PUSH2 0x1026 JUMP JUMPDEST SWAP2 POP PUSH2 0x1303 DUP3 PUSH2 0x129E JUMP JUMPDEST PUSH1 0x40 DUP3 ADD SWAP1 POP SWAP2 SWAP1 POP JUMP JUMPDEST PUSH0 PUSH1 0x20 DUP3 ADD SWAP1 POP DUP2 DUP2 SUB PUSH0 DUP4 ADD MSTORE PUSH2 0x1325 DUP2 PUSH2 0x12EC JUMP JUMPDEST SWAP1 POP SWAP2 SWAP1 POP JUMP JUMPDEST PUSH32 0x41646472657373206973207A65726F0000000000000000000000000000000000 PUSH0 DUP3 ADD MSTORE POP JUMP JUMPDEST PUSH0 PUSH2 0x1360 PUSH1 0xF DUP4 PUSH2 0x1026 JUMP JUMPDEST SWAP2 POP PUSH2 0x136B DUP3 PUSH2 0x132C JUMP JUMPDEST PUSH1 0x20 DUP3 ADD SWAP1 POP SWAP2 SWAP1 POP JUMP JUMPDEST PUSH0 PUSH1 0x20 DUP3 ADD SWAP1 POP DUP2 DUP2 SUB PUSH0 DUP4 ADD MSTORE PUSH2 0x138D DUP2 PUSH2 0x1354 JUMP JUMPDEST SWAP1 POP SWAP2 SWAP1 POP JUMP JUMPDEST PUSH32 0x46726F6D206973206E6F7420746865206F776E65720000000000000000000000 PUSH0 DUP3 ADD MSTORE POP JUMP JUMPDEST PUSH0 PUSH2 0x13C8 PUSH1 0x15 DUP4 PUSH2 0x1026 JUMP JUMPDEST SWAP2 POP PUSH2 0x13D3 DUP3 PUSH2 0x1394 JUMP JUMPDEST PUSH1 0x20 DUP3 ADD SWAP1 POP SWAP2 SWAP1 POP JUMP JUMPDEST PUSH0 PUSH1 0x20 DUP3 ADD SWAP1 POP DUP2 DUP2 SUB PUSH0 DUP4 ADD MSTORE PUSH2 0x13F5 DUP2 PUSH2 0x13BC JUMP JUMPDEST SWAP1 POP SWAP2 SWAP1 POP JUMP JUMPDEST PUSH32 0x5472616E7366657220746F207A65726F20616464726573730000000000000000 PUSH0 DUP3 ADD MSTORE POP JUMP JUMPDEST PUSH0 PUSH2 0x1430 PUSH1 0x18 DUP4 PUSH2 0x1026 JUMP JUMPDEST SWAP2 POP PUSH2 0x143B DUP3 PUSH2 0x13FC JUMP JUMPDEST PUSH1 0x20 DUP3 ADD SWAP1 POP SWAP2 SWAP1 POP JUMP JUMPDEST PUSH0 PUSH1 0x20 DUP3 ADD SWAP1 POP DUP2 DUP2 SUB PUSH0 DUP4 ADD MSTORE PUSH2 0x145D DUP2 PUSH2 0x1424 JUMP JUMPDEST SWAP1 POP SWAP2 SWAP1 POP JUMP JUMPDEST PUSH0 PUSH2 0x146E DUP3 PUSH2 0xD8C JUMP JUMPDEST SWAP2 POP PUSH2 0x1479 DUP4 PUSH2 0xD8C JUMP JUMPDEST SWAP3 POP DUP3 DUP3 SUB SWAP1 POP DUP2 DUP2 GT ISZERO PUSH2 0x1491 JUMPI PUSH2 0x1490 PUSH2 0x123E JUMP JUMPDEST JUMPDEST SWAP3 SWAP2 POP POP JUMP JUMPDEST PUSH0 DUP2 MLOAD SWAP1 POP SWAP2 SWAP1 POP JUMP JUMPDEST PUSH0 DUP3 DUP3 MSTORE PUSH1 0x20 DUP3 ADD SWAP1 POP SWAP3 SWAP2 POP POP JUMP JUMPDEST DUP3 DUP2 DUP4 MCOPY PUSH0 DUP4 DUP4 ADD MSTORE POP POP POP JUMP JUMPDEST PUSH0 PUSH1 0x1F NOT PUSH1 0x1F DUP4 ADD AND SWAP1 POP SWAP2 SWAP1 POP JUMP JUMPDEST PUSH0 PUSH2 0x14D9 DUP3 PUSH2 0x1497 JUMP JUMPDEST PUSH2 0x14E3 DUP2 DUP6 PUSH2 0x14A1 JUMP JUMPDEST SWAP4 POP PUSH2 0x14F3 DUP2 DUP6 PUSH1 0x20 DUP7 ADD PUSH2 0x14B1 JUMP JUMPDEST PUSH2 0x14FC DUP2 PUSH2 0x14BF JUMP JUMPDEST DUP5 ADD SWAP2 POP POP SWAP3 SWAP2 POP POP JUMP JUMPDEST PUSH0 PUSH1 0x80 DUP3 ADD SWAP1 POP PUSH2 0x151A PUSH0 DUP4 ADD DUP8 PUSH2 0xE1A JUMP JUMPDEST PUSH2 0x1527 PUSH1 0x20 DUP4 ADD DUP7 PUSH2 0xE1A JUMP JUMPDEST PUSH2 0x1534 PUSH1 0x40 DUP4 ADD DUP6 PUSH2 0xF25 JUMP JUMPDEST DUP2 DUP2 SUB PUSH1 0x60 DUP4 ADD MSTORE PUSH2 0x1546 DUP2 DUP5 PUSH2 0x14CF JUMP JUMPDEST SWAP1 POP SWAP6 SWAP5 POP POP POP POP POP JUMP JUMPDEST PUSH0 PUSH32 0xFFFFFFFF00000000000000000000000000000000000000000000000000000000 DUP3 AND SWAP1 POP SWAP2 SWAP1 POP JUMP JUMPDEST PUSH2 0x1585 DUP2 PUSH2 0x1551 JUMP JUMPDEST DUP2 EQ PUSH2 0x158F JUMPI PUSH0 PUSH0 REVERT JUMPDEST POP JUMP JUMPDEST PUSH0 DUP2 MLOAD SWAP1 POP PUSH2 0x15A0 DUP2 PUSH2 0x157C JUMP JUMPDEST SWAP3 SWAP2 POP POP JUMP JUMPDEST PUSH0 PUSH1 0x20 DUP3 DUP5 SUB SLT ISZERO PUSH2 0x15BB JUMPI PUSH2 0x15BA PUSH2 0xD88 JUMP JUMPDEST JUMPDEST PUSH0 PUSH2 0x15C8 DUP5 DUP3 DUP6 ADD PUSH2 0x1592 JUMP JUMPDEST SWAP2 POP POP SWAP3 SWAP2 POP POP JUMP INVALID LOG2 PUSH5 0x6970667358 0x22 SLT KECCAK256 DUP6 XOR TLOAD 0x22 0xA7 SWAPN 0x92 0xD7 JUMPI 0xB6 BYTE AND SMOD PUSH22 0x7E6F8706AECA1A4C2D3C2C7DFA701312C7464736F6C PUSH4 0x4300081E STOP CALLER "
				},
				"gasEstimates": {
					"creation": {
						"codeDepositCost": "1127800",
						"executionCost": "1172",
						"totalCost": "1128972"
					},
					"external": {
						"approve(address,uint256)": "31630",
						"balanceOf(address)": "2907",
						"getApproved(uint256)": "5097",
						"isApprovedForAll(address,address)": "infinite",
						"mint(address,uint256)": "infinite",
						"ownerOf(uint256)": "2961",
						"safeTransferFrom(address,address,uint256)": "infinite",
						"setApprovalForAll(address,bool)": "infinite",
						"transferFrom(address,address,uint256)": "infinite"
					},
					"internal": {
						"_checkOnERC721Received(address,address,uint256,bytes memory)": "infinite",
						"_transfer(address,address,uint256)": "infinite"
					}
				},
				"methodIdentifiers": {
					"approve(address,uint256)": "095ea7b3",
					"balanceOf(address)": "70a08231",
					"getApproved(uint256)": "081812fc",
					"isApprovedForAll(address,address)": "e985e9c5",
					"mint(address,uint256)": "40c10f19",
					"ownerOf(uint256)": "6352211e",
					"safeTransferFrom(address,address,uint256)": "42842e0e",
					"setApprovalForAll(address,bool)": "a22cb465",
					"transferFrom(address,address,uint256)": "23b872dd"
				}
			},
			"storageLayout": {
				"storage": [
					{
						"astId": 114,
						"contract": "Contracts/CipherX.sol:CipherX",
						"label": "_owners",
						"offset": 0,
						"slot": "0",
						"type": "t_mapping(t_uint256,t_address)"
					},
					{
						"astId": 118,
						"contract": "Contracts/CipherX.sol:CipherX",
						"label": "_balances",
						"offset": 0,
						"slot": "1",
						"type": "t_mapping(t_address,t_uint256)"
					},
					{
						"astId": 122,
						"contract": "Contracts/CipherX.sol:CipherX",
						"label": "_tokenApprovals",
						"offset": 0,
						"slot": "2",
						"type": "t_mapping(t_uint256,t_address)"
					},
					{
						"astId": 128,
						"contract": "Contracts/CipherX.sol:CipherX",
						"label": "_operatorApprovals",
						"offset": 0,
						"slot": "3",
						"type": "t_mapping(t_address,t_mapping(t_address,t_bool))"
					}
				],
				"types": {
					"t_address": {
						"encoding": "inplace",
						"label": "address",
						"numberOfBytes": "20"
					},
					"t_bool": {
						"encoding": "inplace",
						"label": "bool",
						"numberOfBytes": "1"
					},
					"t_mapping(t_address,t_bool)": {
						"encoding": "mapping",
						"key": "t_address",
						"label": "mapping(address => bool)",
						"numberOfBytes": "32",
						"value": "t_bool"
					},
					"t_mapping(t_address,t_mapping(t_address,t_bool))": {
						"encoding": "mapping",
						"key": "t_address",
						"label": "mapping(address => mapping(address => bool))",
						"numberOfBytes": "32",
						"value": "t_mapping(t_address,t_bool)"
					},
					"t_mapping(t_address,t_uint256)": {
						"encoding": "mapping",
						"key": "t_address",
						"label": "mapping(address => uint256)",
						"numberOfBytes": "32",
						"value": "t_uint256"
					},
					"t_mapping(t_uint256,t_address)": {
						"encoding": "mapping",
						"key": "t_uint256",
						"label": "mapping(uint256 => address)",
						"numberOfBytes": "32",
						"value": "t_address"
					},
					"t_uint256": {
						"encoding": "inplace",
						"label": "uint256",
						"numberOfBytes": "32"
					}
				}
			},
			"userdoc": {
				"kind": "user",
				"methods": {},
				"version": 1
			}
		}
	}
}